:100000000C946E000C9496000C9496000C94960040
:100010000C9496000C9496000C9496000C94960008
:100020000C9496000C9496000C9496000C949600F8
:100030000C9496000C9496000C9496000C949600E8
:100040000C94C30A0C9496000C940B0A0C94E509CA
:100050000C9496000C9496000C9496000C949600C8
:100060000C9496000C94960076016F018901800132
:100070007C014301670109015E0D550D710D660D8F
:10008000620D040D250DCA0C0000000800020100DD
:100090000003040700000000000000000000000052
:1000A000250028002B0000000000240027002A0063
:1000B000040404040404040402020202020203030E
:1000C0000303030301020408102040800102040816
:1000D0001020010204081020B312AB1211241FBE1D
:1000E000CFEFD8E0DEBFCDBF12E0A0E0B1E0EAE4A0
:1000F000F0E302C005900D92A831B107D9F722E0D4
:10010000A8E1B2E001C01D92A13FB207E1F710E003
:10011000CDE6D0E004C02197FE010E943413CC3616
:10012000D107C9F70E94AE110C9418180C94000066
:10013000FC0126813781620F731F848195818617A8
:10014000970738F08281938177836683820F931FAC
:10015000089580E090E00895FF920F931F93CF934E
:10016000DF936115710549F469E371E0DF91CF9187
:100170001F910F91FF900C94B70E8B01EC0162E27E
:10018000CE010E94370FF80161918F01662351F073
:10019000EAE2F1E0F080FF2099F39181961759F09F
:1001A0003296F8CF62E2CE01DF91CF911F910F918D
:1001B000FF900C94370F6CE5CE010E94370F6F2D26
:1001C000DFCF2F923F924F925F926F927F928F92EA
:1001D0009F92AF92BF92CF92DF92EF92FF920F93D6
:1001E0001F93CF93DF93CDB7DEB72E970FB6F8945A
:1001F000DEBF0FBECDBFDC01ED91FC913197E83041
:10020000F10508F059C18B017C01EC5CFF4F0C94A7
:100210003413FC01C280D380E480F580A7019601ED
:10022000C701B6010E94BD16882319F069E471E088
:100230007EC020E030E0A901C701B6010E94BD16D2
:1002400087FF08C06DE2C8010E94370FF7FAF094EB
:10025000F7F8F09420E030E0A901C701B6010E9450
:10026000BD16882309F467C0A7019601C701B6012E
:100270000E944F13A70196010E94BD1681115BC019
:1002800060E571E054C0FC01E280F3806BE5C801D9
:100290000E94370FD7011296ED90FC901397E1144E
:1002A000F10459F0B801C70102960E94E100F7017C
:1002B000E080F180E114F10429F46DE5C8010E94A9
:1002C000370FFAC06CE2C8010E94370FE8CFDC019B
:1002D00012968D919C9113970E947502EDC0FC01BE
:1002E00062817381C8010E94AC00E6C0DC011296F5
:1002F0006D917C9113971BC06DE2C8010E94370F6E
:10030000F7014281538164817581C8010E94F20E18
:10031000D3C0FC0182819381A481B581892B8A2B72
:100320008B2B19F463E471E002C06EE371E0C80145
:100330000E94B70EC1C0C986DA86EB86FC86CE0164
:1003400009960E940D0B1C0189849A84AB84BC849D
:10035000C501B4010E9434146B017C010E94C216D5
:100360009B01AC01C501B4010E944E1320E034E2B0
:1003700044E759E40E9423172B013C010E943414E6
:100380004B015C010E94C2169B01AC01C301B2018A
:100390000E944E139B01AC010E944F130E94341423
:1003A000860E971EA81EB91EF0E48F16F2E49F0673
:1003B000FFE0AF06B104E0F0FFEFCF1ADF0AEF0A6B
:1003C000FF0A2114310489F08AE0C816D104E1043F
:1003D000F10458F0AFEF2A1A3A0A812C912C5401FB
:1003E000C12CD12C7601C39403C0812C912C5401D3
:1003F000B701A601C8010E94F20E81149104A10464
:10040000B10409F442C096E0D92E2AE0422E512CC4
:10041000612C712CC501B401A30192010E94121339
:10042000672B682B692B31F4DD2021F049015A013B
:10043000DA94F0CF1886CD2C7E01B8E0EB0EF11CDB
:10044000FE86ED868AE0482E512C612C712CCA94D0
:10045000FFEFCF1669F0C501B401A30192010E941C
:100460001213605DF70162937F0149015A01EFCFDA
:100470006D857E856D197109D7FC73958EE2DB0160
:100480008E93BD01C8010E94B70E37FE0AC06DE40D
:1004900071E0C8010E94B70E6627772762197309B9
:1004A00008C02114310441F065E6C8010E94370FED
:1004B000B101C8010E94C70E2E960FB6F894DEBF98
:1004C0000FBECDBFDF91CF911F910F91FF90EF90A5
:1004D000DF90CF90BF90AF909F908F907F906F9064
:1004E0005F904F903F902F9008950F931F93CF935D
:1004F000DF938C01EB016BE7CE010E94370FF8010F
:100500000281138101151105A9F0F801628173813F
:10051000CE010E94AC006AE3CE010E94370FBE01FB
:10052000C80104960E94E100F801008111810115C3
:10053000110541F46DE7CE01DF91CF911F910F912D
:100540000C94370F6CE2CE010E94370FDBCF0F9374
:100550001F93CF93DF9300D0CDB7DEB701E080E3E8
:1005600092E00E942008892BA9F080E392E00E948B
:10057000FE07182F89831A8241E050E0BE016F5FA9
:100580007F4F85ED92E00E94BB101F3341F700932F
:100590001802E5CF0F900F90DF91CF911F910F912F
:1005A00008950F931F93CF93DF938B01FC01C281BA
:1005B000D381209759F06A817B81C8010E946D1612
:1005C000892B21F00990D881C02DF3CFCE01DF9186
:1005D000CF911F910F910895FC01A081B1818C9161
:1005E0008D3051F024F489508230B8F505C0803246
:1005F00019F08F3219F0089511962CC011968C9134
:1006000011978A3219F08F32D1F008951196B18383
:10061000A083A081B181CD01019691838083119641
:100620008C9111978823C9F08A3299F712968C9190
:1006300012978F3271F713960DC08A3071F2A08134
:10064000B181CD0101969183808311968C918111A6
:10065000F4CF03C0B183A083C0CF08950F931F933D
:10066000CF93DF931F92CDB7DEB78C0169830E94D1
:10067000EC02D801ED91FC9111978081698186137C
:1006800005C03196ED93FC9381E001C080E00F90AE
:10069000DF91CF911F910F910895EF92FF920F93E9
:1006A0001F93CF93DF938C01DC011496CD91DC91E5
:1006B0001597EA80FB808E819F81E80EF91EC801A4
:1006C00002960E94EC02D8011296ED91FC911397CC
:1006D0009081973291F1923281F180ED890F8A30C9
:1006E00060F0892F8F7D81548A3138F09B3229F058
:1006F00083ED890F823008F060C0F80122813381D8
:100700002F5F3F4F338322832E813F81A9014F5FAB
:100710005F4F6C817D816417750740F06A817B8132
:10072000FB01E20FF31F5F834E839083D801129683
:10073000ED91FC9113979081D0CF3196D80113960B
:10074000FC93EE931297D8011296ED91FC911397BA
:100750002081222391F1AF014F5F5F4F13965C938D
:100760004E931297291749F12C35A9F42181AEE255
:10077000B1E08C91882339F0821303C011962C913B
:1007800002C01296F6CF2223C1F03296D8011396FA
:10079000FC93EE9312974E815F81BA016F5F7F4F9A
:1007A000EC81FD81E617F70770F2EA81FB81E40F27
:1007B000F51F7F836E832083C6CF8E819F819C012E
:1007C0002F5F3F4F4C815D814217530748F04A81AC
:1007D0005B81FA01E80FF91F3F832E83108202C06C
:1007E000E12CF12CC701DF91CF911F910F91FF9068
:1007F000EF900895DB01109749F0ED91FC9111976E
:100800000190F081E02DBC01CD01099480E090E0E1
:100810000895CF93DF93EC01688179818AE090E0BD
:100820000E94FA03009729F0FC01118210821582C0
:100830001482EA81FB81309751F0208131812115AA
:10084000310511F0F901F9CF9183808302C09B83B8
:100850008A83DF91CF910895EF92FF920F931F93B8
:10086000CF93DF938C01EB017A010E94D102FC014E
:10087000892B41F4C8010E940904FC01892BF9F07D
:10088000D383C283D7014D915C9157FD07C0052EDC
:10089000000C660B770B84E090E009C05195419500
:1008A0005109052E000C660B770B85E090E09583CF
:1008B0008483468357836087718781E001C080E02D
:1008C000DF91CF911F910F91FF90EF900895CF93FB
:1008D000DF93EC01BC0184E090E00E94FA03FC018C
:1008E000009729F0D183C0831382128211C08091B6
:1008F0001D0281110BC010921A021092190210925F
:100900001C0210921B0281E080931D0289E192E09B
:10091000DF91CF9108959F92AF92BF92CF92DF92D5
:10092000EF92FF920F931F93CF93DF9300D000D0ED
:1009300000D0CDB7DEB7D82EC92E082F192FF80159
:10094000819191918F010E9467047C016BE7C8013E
:100950000E942E03882309F443C06DE7C8010E945A
:100960002E0381114DC086E0982E8D2D9C2D0E9466
:100970004D035C01892BA1F16AE3C8010E942E039B
:10098000882371F11A821982BE016F5F7F4F8D2D0E
:100990009C2D0E94890F882319F1B501C7010E947F
:1009A000D102009741F4C7010E9409040097C1F0E9
:1009B000FC01B382A282FE013196DC011496892DDE
:1009C00001900D928A95E1F76DE7C8010E942E0310
:1009D000811116C06CE2C8010E942E038111C5CF9F
:1009E00080911D0281110EC010921A0210921902FC
:1009F00010921C0210921B0281E080931D0202C023
:100A0000C70102C089E192E026960FB6F894DEBFD6
:100A10000FBECDBFDF91CF911F910F91FF90EF904F
:100A2000DF90CF90BF90AF909F9008956F927F928C
:100A30008F929F92AF92BF92CF92DF92EF92FF92EE
:100A40000F931F93CF93DF93CDB7DEB7CE54D14032
:100A50000FB6F894DEBF0FBECDBF80911802882379
:100A600009F4B0C2FE01EF52FF4FCF010896938305
:100A7000828384E690E095838483178216828AE0DD
:100A800091E0918380838091D5029091D602009766
:100A900011F488E391E0FA83E9839C838B83FE83DE
:100AA000ED838AE08F838E010F5F1F4FC8010E9484
:100AB0008B045C0169E571E00E94D1027C01009722
:100AC00009F464C0DC011496CD90DC901597B1E078
:100AD000CB16D10461F4FC01668177816115710543
:100AE00031F089E391E00E946D16892B81F0F1E0ED
:100AF000CF1AD10822E0C216D10448F4D7011696C5
:100B00006D917C9117976115710509F041C068E3FB
:100B100071E0C8010E945A11FE01ED5BFE4F118386
:100B20000083C35CDE4FF983E883CD53D140C15CC1
:100B3000DE4F19821882CF53D140BE01635C7E4FD5
:100B4000C70104960E94A20C89819A81C35CDE4F82
:100B500099838883CD53D1408B819C81C15CDE4FCA
:100B600099838883CF53D1408D819E81CF5BDE4FA7
:100B700099838883C154D1401A8219821C821B82B6
:100B80001E821D82C8010E941D1107C068E371E02A
:100B9000CE01835C9E4F0E945A116CE571E0C50145
:100BA0000E945D0E7C0160E671E0C5010E945D0E51
:100BB000982E892E64E671E0C5010E945D0E6C01DD
:100BC00040E050E068E371E085ED92E00E94FC10A7
:100BD00010921802F50180819181892B19F488E621
:100BE00091E03CC02091DF023091E002CF5BDE4F0C
:100BF00088819981C154D1402817390769F58091BE
:100C0000DB029091DC02009749F0C35CDE4F688103
:100C10007981CD53D14061157105D1F4C35CDE4FAC
:100C2000E881F981CD53D140309749F0232BC9F0A9
:100C3000208130E088279927821B930B0BC00097F7
:100C400081F0232B71F0DC012C91822F90E002C007
:100C50000E946D16892B29F08DE791E00E949B116F
:100C6000ABC1F7FE3CC04AE0B701CE018D5B9E4FA1
:100C70000E9422116EE871E0C8010E945A11BE0163
:100C80006D5B7E4FC8010E94E9100E948411C8016B
:100C90000E941D11CE018D5B9E4F0E941D1160911F
:100CA0002502709126024AE0CE018D5B9E4F0E9484
:100CB000221161EA71E0C8010E945A11BE016D5B08
:100CC0007E4FC8010E94E9100E948411C8010E9451
:100CD0001D11CE018D5B9E4F0E941D116DC186E1DD
:100CE00092E00E949B1165EB71E0C8010E945A11CD
:100CF000BE01635C7E4FC8010E94E9100E9484110E
:100D0000C8010E941D114AE0B701CE018D5B9E4FC4
:100D10000E94221161EC71E0C8010E945A11BE01CB
:100D20006D5B7E4FC8010E94E9100E948411C801CA
:100D30000E941D11CE018D5B9E4F0E941D114AE045
:100D4000692D782DCE018D5B9E4F0E9422116AEC99
:100D500071E0C8010E945A11BE016D5B7E4FC8014F
:100D60000E94E9100E948411C8010E941D11CE0149
:100D70008D5B9E4F0E941D114AE0B601CE018D5B36
:100D80009E4F0E94221169ED71E0C8010E945A1124
:100D9000BE016D5B7E4FC8010E94E9100E94841164
:100DA000C8010E941D11CE018D5B9E4F0E941D1136
:100DB000B4E6EB16F104E9F55DEC652E52E0752E14
:100DC000A12CB12C8091250290912602A816B9067B
:100DD00094F4F3018081F2E06F0E711C61E00E94D7
:100DE0003D0A64E670E080E090E00E94890A2FEFFF
:100DF000A21AB20AE7CF31E0C316D104E9F182E0CA
:100E0000C816D10409F041C0C701880F991F9C0181
:100E100023533D4F590161E0D9018C910E943D0A55
:100E200064EF71E080E090E00E94890A60E0F501E3
:100E300029C098ECE916F104F1F64DEC642E42E07D
:100E4000742EA12CB12C8091250290912602A81617
:100E5000B9068CF6D3018C91B2E06B0E711C60E088
:100E60000E943D0A64E670E080E090E00E94890AFA
:100E7000EFEFAE1ABE0AE7CFF701EE0FFF1FE35305
:100E8000FD4F692D80810E943D0AC35BDE4FF982D0
:100E9000E882CD54D140C55BDE4F9882CB54D1401F
:100EA000C45BDE4F8882CC54D140C75BDE4FD98211
:100EB000C882C954D140CE0109969C838B8388ECAB
:100EC00090E09E838D8318861F8280E191E09A8353
:100ED0008983C8010E9467048C0169E571E00E9462
:100EE000D1027C01892B69F4C8010E9409047C01AC
:100EF000892B81F189E591E0D70113969C938E931C
:100F00001297F801808191812091DB023091DC02FF
:100F1000232B01F1C090DF02D090E002FFEFCF1A47
:100F2000DF0ADC01ED91FC910190F081E02DB6012A
:100F300009955C01009771F06091DB027091DC0211
:100F4000A6010E94641682E090E0F70195838483F5
:100F5000B782A682AE01435B5E4F6CE571E0C801CB
:100F60000E942C04AE01455B5E4F60E671E0C80153
:100F70000E942C04AE01475B5E4F64E671E0C8013D
:100F80000E942C0480E392E0CD5BDE4F998388833E
:100F9000C354D140CB5BDE4F19821882C554D14077
:100FA000BE016D5B7E4FC8010E947502CE01835C5D
:100FB0009E4F0E941D1106C0CE01835C9E4F0E9471
:100FC0001D1106C064E670E080E090E00E94890A8E
:100FD000C25BDE4F0FB6F894DEBF0FBECDBFDF9110
:100FE000CF911F910F91FF90EF90DF90CF90BF9026
:100FF000AF909F908F907F906F900895FC01918D9E
:10100000828D981761F0828DDF01A80FB11D5D966A
:101010008C91928D9F5F9F73928F90E008958FEFD8
:101020009FEF0895FC01918D828D981731F0828D8C
:10103000E80FF11D858D90E008958FEF9FEF0895E3
:10104000FC01918D228D892F90E0805C9F4F821B47
:1010500091098F739927089580E392E00E942008F8
:1010600021E0892B09F420E0822F0895FC01848D72
:10107000DF01A80FB11DA35ABF4F2C91848D90E0C2
:1010800001968F739927848FA689B7892C93A0899D
:10109000B1898C9180648C93938D848D981306C054
:1010A0000288F389E02D80818F7D80830895EF92FF
:1010B000FF920F931F93CF93DF93EC0181E0888F12
:1010C0009B8D8C8D981305C0E889F989808185FDF9
:1010D00024C0F62E0B8D10E00F5F1F4F0F731127EA
:1010E000E02E8C8DE8120CC00FB607FCFACFE88911
:1010F000F989808185FFF5CFCE010E943608F1CFB6
:101100008B8DFE01E80FF11DE35AFF4FF0820B8F2C
:10111000EA89FB898081806207C0EE89FF8960834C
:10112000E889F98980818064808381E090E0DF91A3
:10113000CF911F910F91FF90EF900895CF93DF9380
:10114000EC01888D8823C9F0EA89FB89808185FDBF
:1011500005C0A889B9898C9186FD0FC00FB607FC20
:10116000F5CF808185FFF2CFA889B9898C9185FF61
:10117000EDCFCE010E943608E7CFDF91CF910895E1
:101180000E942C0881110C94A70208953FB7F8948F
:1011900080912C0290912D02A0912E02B0912F02ED
:1011A00026B5A89B05C02F3F19F00196A11DB11DC2
:1011B0003FBFBA2FA92F982F8827820F911DA11DFD
:1011C000B11DBC01CD0142E0660F771F881F991F3A
:1011D0004A95D1F708950E945F160F931F93CF93FE
:1011E000DF9300D0CDB7DEB78C01DC01ED91FC912F
:1011F0008081918169831A8241E050E0BE016F5F76
:101200007F4F0E94BB10F8018281938101969383E6
:1012100082830F900F90DF91CF911F910F910895CE
:10122000EF92FF920F931F93CF93DF93EC01E8802F
:10123000F980D7018D919C91FC0104811581611584
:10124000710551F0FB0101900020E9F73197AF01E2
:10125000461B570B0E94BB10D701ED91FC91848176
:1012600095812A813B81280F391F201B310B3B833D
:101270002A83DF91CF911F910F91FF90EF900895F6
:101280000F931F93CF93DF93CDB7DEB766970FB65B
:10129000F894DEBF0FBECDBF8C01CB011E8AFE01CC
:1012A00076962AE030E0B9010E94FE1290E3980F92
:1012B0009293CB010097B9F7BF01C8010E941009B2
:1012C00066960FB6F894DEBF0FBECDBFDF91CF910B
:1012D0001F910F9108958F929F92AF92BF92EF92BC
:1012E000FF920F931F93CF93DF93CDB7DEB766972F
:1012F0000FB6F894DEBF0FBECDBF7C011E8A8E01F3
:101300000A5E1F4F8AE0882E912CA12CB12CCB01B4
:10131000BA01A50194010E941213942F852F605DDC
:10132000F80162938F01A901692F782F41155105AA
:101330006105710561F7BF01C7010E94100966963A
:101340000FB6F894DEBF0FBECDBFDF91CF911F91D6
:101350000F91FF90EF90BF90AF909F908F90089566
:10136000FF920F931F93CF93DF936115710549F49B
:1013700069E371E0DF91CF911F910F91FF900C9481
:1013800010098B01EC0162E2CE010E94ED08F80128
:1013900061918F01662351F0EAE2F1E0F080FF20D5
:1013A00099F39181961759F03296F8CF62E2CE0107
:1013B000DF91CF911F910F91FF900C94ED086CE598
:1013C000CE010E94ED086F2DDFCF1F920F920FB656
:1013D0000F9211242F933F934F935F936F937F93BB
:1013E0008F939F93AF93BF93EF93FF9380E392E02C
:1013F0000E943608FF91EF91BF91AF919F918F911D
:101400007F916F915F914F913F912F910F900FBE00
:101410000F901F9018951F920F920FB60F921124E4
:101420002F938F939F93EF93FF93E0914002F0915E
:1014300041028081E0914602F091470282FD12C094
:101440009081809149028F5F8F7320914A028217A9
:1014500051F0E0914902F0E0E05DFD4F958F8093FF
:10146000490201C08081FF91EF919F918F912F914F
:101470000F900FBE0F901F90189590E0FC01E85759
:10148000FF4F3491FC01EC53FF4F2491FC01E055D8
:10149000FF4FE491EE2309F43BC0332339F133309D
:1014A00091F038F43130A9F0323001F584B58F7DF8
:1014B00012C0373091F03830A1F03430B9F4809157
:1014C00080008F7D03C0809180008F7780938000A3
:1014D0000DC084B58F7784BD09C08091B0008F772F
:1014E00003C08091B0008F7D8093B000F0E0EE0FDC
:1014F000FF1FE456FF4FA591B4918FB7F894EC917C
:10150000611103C020952E2301C02E2B2C938FBF79
:1015100008958F929F92AF92BF92CF92DF92EF92F7
:10152000FF926B017C010E94C6084B015C01C11453
:10153000D104E104F104F1F00E94C608DC01CB0102
:1015400088199909AA09BB09883E9340A105B105EC
:1015500070F321E0C21AD108E108F10888EE880E84
:1015600083E0981EA11CB11CC114D104E104F10454
:1015700019F7DDCFFF90EF90DF90CF90BF90AF9045
:101580009F908F9008951F920F920FB60F92112483
:101590002F933F938F939F93AF93BF938091280294
:1015A00090912902A0912A02B0912B02309127023A
:1015B00023E0230F2D3720F40196A11DB11D05C096
:1015C00026E8230F0296A11DB11D209327028093C8
:1015D000280290932902A0932A02B0932B028091B3
:1015E0002C0290912D02A0912E02B0912F02019613
:1015F000A11DB11D80932C0290932D02A0932E0269
:10160000B0932F02BF91AF919F918F913F912F91F6
:101610000F900FBE0F901F901895CF92DF92EF9210
:10162000FF920F931F93CF93DF938C01FC01C08037
:10163000D180E280F38020E836E948E15BE4C7012D
:10164000B6010E94631487FDAEC02EEA35EC4DE969
:1016500054E7C701B6010E94631487FD10C02EEA4B
:1016600035EC4DE954E7C701B6010E94BB13F80100
:101670006083718382839383C0E2D0E002C0C0E0C4
:10168000D0E0F801C080D180E280F3802AEC3BE119
:101690004EE05AE5C701B6010E94631487FD0EC0F3
:1016A0002AEC3BE14EE05AE5C701B6010E94BB13AC
:1016B000F80160837183828393836096F801C08010
:1016C000D180E280F38020E23CEB4EEB5CE4C7018A
:1016D000B6010E94631487FD0EC020E23CEB4EEB86
:1016E0005CE4C701B6010E94BB13F80160837183FB
:1016F000828393832896F801C080D180E280F380B2
:1017000020E030E44CE156E4C701B6010E946314C6
:1017100087FD0EC020E030E44CE156E4C701B6017D
:101720000E94BB13F80160837183828393832496A4
:10173000F801C080D180E280F38020E030E048EC06
:1017400052E4C701B6010E94631487FD0EC020E079
:1017500030E048EC52E4C701B6010E94BB13F80127
:1017600060837183828393832296F801C080D18045
:10177000E280F38020E030E040E251E4C701B601AE
:101780000E94631487FD11C020E030E040E251E484
:10179000C701B6010E94BB13F80160837183828385
:1017A0009383219602C0C0E0D0E0F801C080D180D0
:1017B000E280F38020E030E0A901C701B6010E9479
:1017C000631418160CF0B4C02CEA35EC47E257E36A
:1017D000C701B6010E94BD1618160CF4A9C023EB70
:1017E0003EEC41E05CE0C701B6010E94BD1687FFF8
:1017F0000EC02EEA35EC4DE954E7C701B6010E9450
:101800002317F8016083718382839383A097F80183
:10181000C080D180E280F3802DE73DE140E956E2CF
:10182000C701B6010E94BD1687FF0EC02AEC3BE13E
:101830004EE05AE5C701B6010E942317F801608304
:101840007183828393836097F801C080D180E280A6
:10185000F38025E93FEB46ED53E3C701B6010E9453
:10186000BD1687FF0EC020E23CEB4EEB5CE4C701E7
:10187000B6010E942317F8016083718382839383EA
:101880002897F801C080D180E280F3802FE632E112
:1018900043E85AE3C701B6010E94BD1687FF0EC098
:1018A00020E030E44CE156E4C701B6010E94231762
:1018B000F80160837183828393832497F801C08049
:1018C000D180E280F3802DEC3CEC4CEC5DE3C70171
:1018D000B6010E94BD1687FF0EC020E030E048EC44
:1018E00052E4C701B6010E942317F8016083718397
:1018F000828393832297F801C080D180E280F380B5
:1019000020E030E040E85FE3C701B6010E94BD1669
:1019100087FF0EC020E030E040E251E4C701B6018D
:101920000E942317F8016083718382839383219738
:10193000CE01DF91CF911F910F91FF90EF90DF903B
:10194000CF9008952F923F924F925F926F927F9225
:101950008F929F92AF92BF92CF92DF92EF92FF92BF
:101960000F931F93CF93DF93CDB7DEB72E970FB6AC
:10197000F894DEBF0FBECDBFDC01ED91FC91319735
:10198000E830F10508F080C18B017C01E45CFF4F79
:101990000C943413FC01C280D380E480F580A7014D
:1019A0009601C701B6010E94BD16882319F069E4AB
:1019B00071E0A5C020E030E0A901C701B6010E9496
:1019C000BD1687FF08C06DE2C8010E94ED08F7FA56
:1019D000F094F7F8F09420E030E0A901C701B601D7
:1019E0000E94BD16882309F48EC0A7019601C70185
:1019F000B6010E944F13A70196010E94BD168111E6
:101A000082C060E571E07BC0FC01E280F3806BE5A1
:101A1000C8010E94ED08D7011296ED90FC90139733
:101A2000E114F10459F0B801C70102960E94A20C1A
:101A3000F701E080F180E114F10411F46DE531C0AB
:101A40006CE2C8010E94ED08EBCFDC011296ED902C
:101A5000FC9013976BE7C8010E94ED08F701E28044
:101A6000F38004C06CE2C8010E94ED08E114F104A7
:101A7000B9F0D70112966D917C911397C8010E941D
:101A8000B0096AE3C8010E94ED08B801C7010496D5
:101A90000E94A20CF701E080F180E114F10411F73B
:101AA0006DE7C8010E94ED08EFC0DC0112966D9150
:101AB0007C911397C8010E94B009E6C0FC016281C5
:101AC00073811DC06DE2C8010E94ED08D701129616
:101AD0004D915D916D917C911597C8010E946B09A4
:101AE000D3C0FC0182819381A481B581892B8A2B8B
:101AF0008B2B19F463E471E002C06EE371E0C8015E
:101B00000E941009C1C0C986DA86EB86FC86CE0128
:101B100009960E940D0B1C0189849A84AB84BC84B5
:101B2000C501B4010E9434146B017C010E94C216ED
:101B30009B01AC01C501B4010E944E1320E034E2C8
:101B400044E759E40E9423172B013C010E943414FE
:101B50004B015C010E94C2169B01AC01C301B201A2
:101B60000E944E139B01AC010E944F130E9434143B
:101B7000860E971EA81EB91EF0E48F16F2E49F068B
:101B8000FFE0AF06B104E0F0FFEFCF1ADF0AEF0A83
:101B9000FF0A2114310489F08AE0C816D104E10457
:101BA000F10458F0AFEF2A1A3A0A812C912C540113
:101BB000C12CD12C7601C39403C0812C912C5401EB
:101BC000B701A601C8010E946B0981149104A10408
:101BD000B10409F442C096E0D92E2AE0422E512CDD
:101BE000612C712CC501B401A30192010E94121352
:101BF000672B682B692B31F4DD2021F049015A0154
:101C0000DA94F0CF1886CD2C7E01B8E0EB0EF11CF3
:101C1000FE86ED868AE0482E512C612C712CCA94E8
:101C2000FFEFCF1669F0C501B401A30192010E9434
:101C30001213605DF70162937F0149015A01EFCFF2
:101C40006D857E856D197109D7FC73958EE2DB0178
:101C50008E93BD01C8010E94100937FE0AC06DE4D1
:101C600071E0C8010E94100966277727621973097D
:101C700008C02114310441F065E6C8010E94ED0856
:101C8000B101C8010E9440092E960FB6F894DEBF3C
:101C90000FBECDBFDF91CF911F910F91FF90EF90BD
:101CA000DF90CF90BF90AF909F908F907F906F907C
:101CB0005F904F903F902F9008950E94D102FC01B9
:101CC000892B09F44CC084819581833091053CF4C3
:101CD000813091057CF4009709F448C039C0853003
:101CE00091052CF00597A1F5668177812CC086813E
:101CF000978108950680F781E02D309781F18081EA
:101D0000843781F18B3221F08D3229F491E001C0CA
:101D100090E0319601C090E060E070E03AE081919F
:101D200020ED280F2A3068F4369FA001379F500D10
:101D30001124682F880F770B60537109640F751F8A
:101D4000EECF992391F088279927861B970B08954A
:101D500066817781808591850E942D1406C080E080
:101D600090E0089581E090E00895CB010895CF932D
:101D7000DF93EC01888199810E946F112A813B8158
:101D8000820F931F9B838A83DF91CF9108950F93D6
:101D90001F93CF93DF93CDB7DEB766970FB6F89456
:101DA000DEBF0FBECDBF8C01CB011E8AFE01769631
:101DB0002AE030E0B9010E94FE1290E3980F92935E
:101DC000CB010097B9F7BF01C8010E94B70E669614
:101DD0000FB6F894DEBF0FBECDBFDF91CF911F913C
:101DE0000F9108958F929F92AF92BF92EF92FF92C0
:101DF0000F931F93CF93DF93CDB7DEB766970FB6E0
:101E0000F894DEBF0FBECDBF7C011E8A8E010A5E34
:101E10001F4F8AE0882E912CA12CB12CCB01BA0146
:101E2000A50194010E941213942F852F605DF80183
:101E300062938F01A901692F782F41155105610522
:101E4000710561F7BF01C7010E94B70E66960FB614
:101E5000F894DEBF0FBECDBFDF91CF911F910F91E0
:101E6000FF90EF90BF90AF909F908F900895CF9389
:101E7000DF93EC0188819981DC01ED91FC91019067
:101E8000F081E02D09952A813B81820F931F9B836E
:101E90008A83DF91CF910895CF92DF92EF92FF92E4
:101EA0000F931F93CF93DF936C017A018B01C0E0F6
:101EB000D0E0CE15DF0589F0D8016D918D01D601F6
:101EC000ED91FC910190F081E02DC6010995892BDF
:101ED00011F47E0102C02196ECCFC701DF91CF91B2
:101EE0001F910F91FF90EF90DF90CF900895CF93C7
:101EF000DF93EC0188819981009711F00E94FD1415
:101F0000198218821D821C821B821A82DF91CF9156
:101F100008959F92AF92BF92CF92DF92EF92FF927D
:101F20000F931F93CF93DF9300D000D000D0CDB795
:101F3000DEB7FC019681992309F4E2C06B017F01B1
:101F4000915096835F0182E0A80EB11CC5010E94EA
:101F5000EC02D7011296ED91FC91139780818B359D
:101F600021F08B3709F499C0A3C0F70100811181DA
:101F7000B80184E090E00E94FA03009751F0DC0180
:101F800011961C930E9313961C921E9212978C011D
:101F900011C08091E50281110BC01092E2021092F3
:101FA000E1021092E4021092E30281E08093E502E4
:101FB00001EE12E06BE5C5010E942E03882309F4AF
:101FC0004CC06DE5C5010E942E03811157C086E00B
:101FD000982E1A821982BE016F5F7F4FC7010E943F
:101FE000890F8823D1F1F8016081718188E090E048
:101FF0000E94FA03DC01892B39F011961C921E9283
:1020000013961C921E921297F8012281338121159A
:10201000310551F0F90180819181009711F09C0107
:10202000F9CFB183A08303C0F801B383A2831097D3
:10203000A1F0FE0131961296892D01900D928A959C
:10204000E1F76DE5C5010E942E03811117C06CE216
:10205000C5010E942E038111BCCF8091E502811140
:102060000BC01092E2021092E1021092E402109270
:10207000E30281E08093E50201EE12E0D8018D9148
:102080009C91892B11F410E033C086E090E0F601BA
:1020900091838083138302832AC0C7010E948B042B
:1020A000DC012D913C91232B71F327E030E01AC025
:1020B00011E0873219F0823209F010E0C7010E9466
:1020C0004D03009701F3112359F022E030E0D601CF
:1020D00011963C932E9313969C938E93129708C05F
:1020E00021E030E0F601318320839383828311E085
:1020F000D70116968C9116978F5F16968C9301C018
:1021000010E0812F26960FB6F894DEBF0FBECDBF2C
:10211000DF91CF911F910F91FF90EF90DF90CF90C3
:10212000BF90AF909F9008950F931F93CF93DF932D
:10213000EC0188819981009729F02A813B8126173B
:10214000370788F48B016F5F7F4F0E9495150097CA
:1021500061F0998388831B830A832C813D81232B23
:1021600011F4FC01108281E001C080E0DF91CF9189
:102170001F910F910895EF92FF920F931F93CF93AA
:10218000DF93FC01248135816115710511F480E034
:1021900019C041155105A9F07B01EC018A01020F1C
:1021A000131FB8010E949410882389F32881398174
:1021B0008C819D81B701820F931F0E9476161D832B
:1021C0000C8381E0DF91CF911F910F91FF90EF90F1
:1021D0000895CF93DF93EC01FB0144815581608129
:1021E00071810E94BB10811103C0CE010E94770F44
:1021F000CE01DF91CF910895EF92FF920F931F933D
:10220000CF93DF93EC017B018A01BA010E94941005
:10221000811104C0CE010E94770F07C01D830C837B
:10222000B701888199810E947616CE01DF91CF9106
:102230001F910F91FF90EF900895FC018081918193
:102240000C94FD14EF92FF920F931F93CF93DF93A3
:10225000CDB7DEB762970FB6F894DEBF0FBECDBF25
:102260008C01CB01F8011182108213821282158237
:10227000148250E09E012F5F3F4F7901B9010E9407
:102280007D16F70101900020E9F73197AF014E1953
:102290005F09B701C8010E94FC1062960FB6F8945E
:1022A000DEBF0FBECDBFDF91CF911F910F91FF9089
:1022B000EF900895FC011182108213821282158220
:1022C00014826115710551F0FB0101900020E9F7BE
:1022D0003197AF01461B570B0C94FC100895611504
:1022E000710579F0FB0101900020E9F73197AF010A
:1022F000461B570BDC01ED91FC910280F381E02D30
:10230000099480E090E00895CF93DF93FC0144812D
:1023100055816081718180E392E00E944C0FEC0155
:1023200065E172E080E392E00E946F118C0F9D1FC7
:10233000DF91CF910895CF93DF93BC0180E392E0CA
:102340000E946F11EC0165E172E080E392E00E946F
:102350006F118C0F9D1FDF91CF910895CF93DF9365
:10236000CDB7DEB72C970FB6F894DEBF0FBECDBF4A
:10237000789484B5826084BD84B5816084BD85B560
:10238000826085BD85B5816085BD80916E0081606C
:1023900080936E0010928100809181008260809312
:1023A0008100809181008160809381008091800014
:1023B0008160809380008091B10084608093B1003F
:1023C0008091B00081608093B00080917A00846039
:1023D00080937A0080917A00826080937A00809165
:1023E0007A00816080937A0080917A00806880937F
:1023F0007A001092C100E0914002F091410282E027
:102400008083E0913C02F0913D021082E0913E0217
:10241000F0913F028FEC808310924802E0914402D9
:10242000F091450286E08083E0914202F091430200
:10243000808180618083E0914202F091430280813B
:1024400088608083E0914202F0914302808180683D
:102450008083E0914202F091430280818F7D8083EE
:1024600068EC70E085ED92E00E94941084E090E0CA
:10247000909326028093250281EE91E00E949B11A9
:1024800068EF71E0CE0101960E945A116BED72E087
:10249000CE0101960E94E9100E948411CE0101969E
:1024A0000E941D110DEC12E0E12CF12C609125022F
:1024B00070912602E616F7066CF5D8018D919C9175
:1024C00011979927FC01EC53FF4F2491FC01E05533
:1024D000FF4F84918823A1F090E0880F991FFC01A1
:1024E000EA55FF4F45915491FC01E456FF4F859109
:1024F00094918FB7F894FA019081292B20838FBF94
:102500000E5F1F4F60E08C910E943D0AFFEFEF1AB3
:10251000FF0ACCCF4AE0CE0101960E94221161EA67
:1025200071E0CE0107960E945A11BE016F5F7F4F86
:10253000CE0107960E94E9100E948411CE010796F1
:102540000E941D11CE0101960E941D110E941605C8
:102550000E94C008FBCF85ED92E00E941D118BED1B
:1025600092E00C941D11E0E3F2E01382128288EEF7
:1025700093E0A0E0B0E084839583A683B78386E1EF
:1025800091E09183808385EC90E09587848784EC4B
:1025900090E09787868780EC90E0918B808B81EC30
:1025A00090E0938B828B82EC90E0958B848B86EC11
:1025B00090E0978B868B118E128E138E148E63E0B3
:1025C00072E08BED92E00E945A1168E371E085EDB4
:1025D00092E00E945A11EDECF2E084E090E09183E9
:1025E000808385E090E09383828386E090E095830A
:1025F000848387E090E097838683089597FB072E76
:1026000016F4009407D077FD09D00E943A1307FC16
:1026100005D03EF4909581959F4F089570956195F2
:102620007F4F0895A1E21A2EAA1BBB1BFD010DC00E
:10263000AA1FBB1FEE1FFF1FA217B307E407F50772
:1026400020F0A21BB30BE40BF50B661F771F881F4E
:10265000991F1A9469F760957095809590959B01E4
:10266000AC01BD01CF010895EE0FFF1F0590F4915D
:10267000E02D0994AA1BBB1B51E107C0AA1FBB1F79
:10268000A617B70710F0A61BB70B881F991F5A95FE
:10269000A9F780959095BC01CD0108955058BB27AE
:1026A000AA270E9466130C94A7170E94991738F066
:1026B0000E94A01720F039F49F3F19F426F40C94DF
:1026C00096170EF4E095E7FB0C949017E92F0E9403
:1026D000B81758F3BA17620773078407950720F0F5
:1026E00079F4A6F50C94DA170EF4E0950B2EBA2FB8
:1026F000A02D0B01B90190010C01CA01A001112408
:10270000FF27591B99F0593F50F4503E68F11A16B3
:10271000F040A22F232F342F4427585FF3CF469544
:1027200037952795A795F0405395C9F77EF41F1666
:10273000BA0B620B730B840BBAF09150A1F0FF0F30
:10274000BB1F661F771F881FC2F70EC0BA0F621F1C
:10275000731F841F48F4879577956795B795F7950C
:102760009E3F08F0B0CF9395880F08F09927EE0FA1
:102770009795879508950E94CF130C94A7170E94F0
:10278000A01758F00E94991740F029F45F3F29F0F4
:102790000C94901751110C94DB170C9496170E940F
:1027A000B81768F39923B1F3552391F3951B550B93
:1027B000BB27AA2762177307840738F09F5F5F4F14
:1027C000220F331F441FAA1FA9F335D00E2E3AF053
:1027D000E0E832D091505040E695001CCAF72BD06B
:1027E000FE2F29D0660F771F881FBB1F26173707BC
:1027F0004807AB07B0E809F0BB0B802DBF01FF27EE
:1028000093585F4F3AF09E3F510578F00C94901723
:102810000C94DB175F3FE4F3983ED4F386957795ED
:102820006795B795F7959F5FC9F7880F911D9695A6
:10283000879597F90895E1E0660F771F881FBB1F02
:10284000621773078407BA0720F0621B730B840BAF
:10285000BA0BEE1F88F7E09508950E94341468942F
:10286000B1110C94DB1708950E94C01788F09F5790
:1028700098F0B92F9927B751B0F0E1F0660F771FA4
:10288000881F991F1AF0BA95C9F714C0B13091F09A
:102890000E94DA17B1E008950C94DA17672F782FA9
:1028A0008827B85F39F0B93FCCF38695779567955F
:1028B000B395D9F73EF490958095709561957F4FCB
:1028C0008F4F9F4F08950E94FF1608F48FEF0895D1
:1028D000CF93DF938230910510F482E090E0E09195
:1028E000EF02F091F00220E030E0C0E0D0E030975D
:1028F00011F14081518148175907C0F04817590715
:1029000061F482819381209719F09B838A832BC085
:102910009093F0028093EF0226C02115310519F043
:102920004217530718F49A01BE01DF01EF0102803C
:10293000F381E02DDCCF2115310509F1281B390B7E
:102940002430310590F412968D919C911397611566
:10295000710521F0FB019383828304C09093F00200
:102960008093EF02FD01329644C0FD01E20FF31F98
:1029700081939193225031092D933C933AC0209139
:10298000ED023091EE02232B41F4209102013091AF
:1029900003013093EE022093ED022091000130916B
:1029A00001012115310541F42DB73EB740910401D5
:1029B00050910501241B350BE091ED02F091EE02E0
:1029C000E217F307A0F42E1B3F0B2817390778F006
:1029D000AC014E5F5F4F2417350748F04E0F5F1F65
:1029E0005093EE024093ED028193919302C0E0E098
:1029F000F0E0CF01DF91CF9108950F931F93CF9314
:102A0000DF93009709F48CC0FC0132971382128285
:102A10000091EF021091F0020115110581F420815F
:102A20003181820F931F2091ED023091EE02281721
:102A3000390779F5F093EE02E093ED0271C0D80109
:102A400040E050E0AE17BF0750F412962D913C9134
:102A50001397AD012115310509F1D901F3CF9D017E
:102A6000DA013383228360817181860F971F821779
:102A7000930769F4EC0128813981260F371F2E5FF7
:102A80003F4F318320838A819B8193838283452BAF
:102A900029F4F093F002E093EF0242C01396FC9306
:102AA000EE931297ED01499159919E01240F351F24
:102AB000E217F30771F480819181840F951F0296CC
:102AC00011969C938E938281938113969C938E93FF
:102AD0001297E0E0F0E0D80112968D919C91139747
:102AE000009719F0F8018C01F6CF8D919C91980117
:102AF0002E5F3F4F820F931F2091ED023091EE0227
:102B00002817390769F4309729F41092F0021092CF
:102B1000EF0202C0138212821093EE020093ED02C4
:102B2000DF91CF911F910F910895A0E0B0E0EBE904
:102B3000F5E10C94E517EC01009721F4CB010E941C
:102B40006814B8C0FC01E60FF71F9C012250310940
:102B5000E217F30708F4ACC0D9010D911C9111974D
:102B600006171707B0F00530110508F49FC0C8011B
:102B700004978617970708F499C002501109061B9D
:102B8000170B019311936D937C93CF010E94FD1459
:102B90008DC05B01A01AB10A4C01800E911EA0915C
:102BA000EF02B091F00240E050E0E12CF12C1097E0
:102BB00009F44AC0A815B905D1F56D907C9011971C
:102BC000630182E0C80ED11CCA14DB0480F1A301AA
:102BD0004A195B096A0182E0C80ED11C1296BC90AA
:102BE00012971396AC91B5E0CB16D10440F0B282A7
:102BF000A38351834083D9016D937C930AC00E5FF8
:102C00001F4FC301800F911FF90191838083EB2D2A
:102C1000FA2FE114F10431F0D7011396FC93EE93EF
:102C2000129744C0F093F002E093EF023FC08D9101
:102C30009C9111974817590708F4AC017D01129631
:102C40000D90BC91A02DB3CF8091ED029091EE023A
:102C500088159905E1F446175707C8F480910001DB
:102C600090910101009741F48DB79EB74091040106
:102C700050910501841B950BE817F907C8F4F093F0
:102C8000EE02E093ED02F901718360830FC0CB0186
:102C90000E9468147C01009759F0A801BE010E94AF
:102CA0006416CE010E94FD14C70104C0CE0102C00B
:102CB00080E090E0CDB7DEB7EEE00C94011881E043
:102CC00090E0F8940C941818FB01DC0102C001900C
:102CD0000D9241505040D8F70895FB01DC018D91D1
:102CE000019080190110D9F3990B0895FB01DC01C3
:102CF00001900D920020E1F708954532510520F42E
:102D0000423010F00C948816FB011082CB0108951C
:102D1000BB274A3031F4992322F4BDE29095819586
:102D20009F4F0C949416BB27FB015527AA27880FA9
:102D3000991FAA1FA41710F0A41B83955051B9F72F
:102D4000A05DAA3308F0A95DA193009779F7B111AE
:102D5000B1931192CB010C94AD16DC01FC01672FED
:102D600071917723E1F7329704C07C916D93708362
:102D70006291AE17BF07C8F308950E94FF1608F4CA
:102D800081E00895E89409C097FB3EF49095809502
:102D9000709561957F4F8F4F9F4F9923A9F0F92F21
:102DA00096E9BB279395F695879577956795B7959F
:102DB000F111F8CFFAF4BB0F11F460FF1BC06F5F85
:102DC0007F4F8F4F9F4F16C0882311F096E911C097
:102DD000772321F09EE8872F762F05C0662371F0B8
:102DE00096E8862F70E060E02AF09A95660F771FCC
:102DF000881FDAF7880F9695879597F90895990FA8
:102E00000008550FAA0BE0E8FEEF16161706E807B4
:102E1000F907C0F012161306E407F50798F0621BD5
:102E2000730B840B950B39F40A2661F0232B242BAA
:102E3000252B21F408950A2609F4A140A6958FEFC9
:102E4000811D811D08950E9436170C94A7170E94BA
:102E5000991738F00E94A01720F0952311F00C94D8
:102E600090170C94961711240C94DB170E94B81736
:102E700070F3959FC1F3950F50E0551F629FF001CD
:102E8000729FBB27F00DB11D639FAA27F00DB11DE6
:102E9000AA1F649F6627B00DA11D661F829F22276F
:102EA000B00DA11D621F739FB00DA11D621F839FF6
:102EB000A00D611D221F749F3327A00D611D231FCC
:102EC000849F600D211D822F762F6A2F11249F571A
:102ED00050409AF0F1F088234AF0EE0FFF1FBB1F1D
:102EE000661F771F881F91505040A9F79E3F5105DC
:102EF00080F00C9490170C94DB175F3FE4F3983E3E
:102F0000D4F3869577956795B795F795E7959F5F85
:102F1000C1F7FE2B880F911D9695879597F9089517
:102F200097F99F6780E870E060E008959FEF80EC7C
:102F3000089500240A94161617061806090608951F
:102F400000240A9412161306140605060895092E85
:102F50000394000C11F4882352F0BB0F40F4BF2BF4
:102F600011F460FF04C06F5F7F4F8F4F9F4F089534
:102F700057FD9058440F551F59F05F3F71F047952A
:102F8000880F97FB991F61F09F3F79F0879508950F
:102F9000121613061406551FF2CF4695F1DF08C02E
:102FA000161617061806991FF1CF8695710561054B
:102FB00008940895E894BB2766277727CB0197F9F3
:102FC00008952F923F924F925F926F927F928F92CD
:102FD0009F92AF92BF92CF92DF92EF92FF920F93A8
:102FE0001F93CF93DF93CDB7DEB7CA1BDB0B0FB6B2
:102FF000F894DEBF0FBECDBF09942A88398848886F
:103000005F846E847D848C849B84AA84B984C88404
:10301000DF80EE80FD800C811B81AA81B981CE0FFB
:10302000D11D0FB6F894DEBF0FBECDBFED010895E0
:1030300010E0CDE6D0E004C0FE010E9434132196DA
:0A304000CE36D107C9F7F894FFCF90
:10304A000000F1028000000000009800000000006B
:10305A0098000000000057084C0F2008FE071208CD
:10306A009E08070006000500040022225C5C620834
:10307A00660C6E0A720D7409006E756C6C007472BF
:10308A0075650066616C7365004E614E00652D00C2
:10309A00496E66696E6974790069640072656C00CC
:1030AA00696E73007479700070617273654F626A39
:1030BA006563742829206661696C65640049742710
:1030CA0073206E6F74206D7920647574790052656F
:1030DA006C6179206E6F742076616C6964203A2085
:1030EA00004E756D626572206F662072656C61793B
:1030FA0073203A20004465766963654944203A2082
:10310A000052656C6179203A2000496E73747275B9
:10311A006374696F6E203A200074797065203A20D2
:10312A00004C7578646F6D2073797374656D206CCB
:10313A006F616465642E2E005862656520494420DB
:10314A003A200030303133413230305F343045413B
:08315A0045333635000D0A0073
:107E0000112484B714BE81FFF0D085E080938100F7
:107E100082E08093C00088E18093C10086E0809377
:107E2000C20080E18093C4008EE0C9D0259A86E02C
:107E300020E33CEF91E0309385002093840096BBD3
:107E4000B09BFECF1D9AA8958150A9F7CC24DD24C4
:107E500088248394B5E0AB2EA1E19A2EF3E0BF2EE7
:107E6000A2D0813461F49FD0082FAFD0023811F036
:107E7000013811F484E001C083E08DD089C08234E0
:107E800011F484E103C0853419F485E0A6D080C0E4
:107E9000853579F488D0E82EFF2485D0082F10E0AE
:107EA000102F00270E291F29000F111F8ED06801E7
:107EB0006FC0863521F484E090D080E0DECF843638
:107EC00009F040C070D06FD0082F6DD080E0C81688
:107ED00080E7D80618F4F601B7BEE895C0E0D1E017
:107EE00062D089930C17E1F7F0E0CF16F0E7DF06D8
:107EF00018F0F601B7BEE89568D007B600FCFDCFD4
:107F0000A601A0E0B1E02C9130E011968C91119780
:107F100090E0982F8827822B932B1296FA010C0160
:107F200087BEE89511244E5F5F4FF1E0A038BF0790
:107F300051F7F601A7BEE89507B600FCFDCF97BE46
:107F4000E89526C08437B1F42ED02DD0F82E2BD052
:107F50003CD0F601EF2C8F010F5F1F4F84911BD097
:107F6000EA94F801C1F70894C11CD11CFA94CF0C13
:107F7000D11C0EC0853739F428D08EE10CD085E9AC
:107F80000AD08FE07ACF813511F488E018D01DD067
:107F900080E101D065CF982F8091C00085FFFCCF94
:107FA0009093C60008958091C00087FFFCCF809118
:107FB000C00084FD01C0A8958091C6000895E0E648
:107FC000F0E098E1908380830895EDDF803219F02E
:107FD00088E0F5DFFFCF84E1DECF1F93182FE3DFCA
:107FE0001150E9F7F2DF1F91089580E0E8DFEE27F6
:047FF000FF270994CA
:027FFE00040479
:0400000300007E007B
:00000001FF