:100000000C946E000C9496000C9496000C94960040
:100010000C9496000C9496000C9496000C94960008
:100020000C9496000C9496000C9496000C949600F8
:100030000C9496000C9496000C9496000C949600E8
:100040000C94EB0A0C9496000C94330A0C940D0A51
:100050000C9496000C9496000C9496000C949600C8
:100060000C9496000C949600080201021B021202E6
:100070000E02D501F9019B01860D7D0D990D8E0DA6
:100080008A0D2C0D4D0DF20C00000008000201003D
:100090000003040700000000000000000000000052
:1000A000250028002B0000000000240027002A0063
:1000B000040404040404040402020202020203030E
:1000C0000303030301020408102040800102040816
:1000D0001020010204081020B612AE1211241FBE17
:1000E000CFEFD8E0DEBFCDBF12E0A0E0B1E0E0E7A7
:1000F000F0E302C005900D92A633B107D9F723E0D3
:10010000A6E3B2E001C01D92A731B207E1F710E00B
:10011000CDE6D0E004C02197FE010E944713CC3603
:10012000D107C9F70E94B1110C942B180C94000050
:10013000CF93DF93EC0188819981DC01ED91FC91F3
:100140000190F081E02D09952A813B81820F931F58
:100150009B838A83DF91CF910895FC0126813781AB
:10016000620F731F848195818617970738F082810B
:10017000938177836683820F931F089580E090E0D8
:1001800008950F931F93CF93DF9300D0CDB7DEB7C1
:1001900001E08EE492E00E944808892B31F18EE460
:1001A00092E00E942608182FE0914E02F0914F0233
:1001B0000190F081E02D682F8EE492E0099519837B
:1001C0001A8241E050E0BE016F5F7F4F8BEF92E0FB
:1001D0000E94BE101A30E9F666E571E08EE492E006
:1001E0000E94721100933602D4CF0F900F90DF91CE
:1001F000CF911F910F910895CF93DF93EC018881E8
:1002000099810E9472112A813B81820F931F9B83E7
:100210008A83DF91CF910895FF920F931F93CF931D
:10022000DF936115710549F461E471E0DF91CF91CD
:100230001F910F91FF900C94FC008B01EC0162E286
:10024000CE010E949800F80161918F01662351F060
:10025000E2E3F1E0F080FF2099F39181961759F0E5
:100260003296F8CF62E2CE01DF91CF911F910F91CC
:10027000FF900C9498006CE5CE010E9498006F2DC1
:10028000DFCF0F931F93CF93DF938C01EB016BE7CD
:10029000CE010E949800F801028113810115110519
:1002A000A9F0F80162817381CE010E940C016AE31A
:1002B000CE010E949800BE01C80104960E947301FD
:1002C000F801008111810115110541F46DE7CE019E
:1002D000DF91CF911F910F910C9498006CE2CE01A9
:1002E0000E949800DBCF2F923F924F925F926F92C5
:1002F0007F928F929F92AF92BF92CF92DF92EF92B6
:10030000FF920F931F93CF93DF93CDB7DEB72E9756
:100310000FB6F894DEBF0FBECDBFDC01ED91FC91AE
:100320003197E830F10508F059C18B017C01EC5C94
:10033000FF4F0C944713FC01C280D380E480F5800A
:10034000A7019601C701B6010E94D016882319F0B3
:1003500061E571E07EC020E030E0A901C701B6018F
:100360000E94D01687FF08C06DE2C8010E94980065
:10037000F7FAF094F7F8F09420E030E0A901C70113
:10038000B6010E94D016882309F467C0A701960120
:10039000C701B6010E946213A70196010E94D01600
:1003A00081115BC068E571E054C0FC01E280F3801C
:1003B0006BE5C8010E949800D7011296ED90FC9061
:1003C0001397E114F10459F0B801C70102960E9495
:1003D0007301F701E080F180E114F10429F46DE587
:1003E000C8010E949800FAC06CE2C8010E949800FF
:1003F000E8CFDC0112968D919C9113970E944101E8
:10040000EDC0FC0162817381C8010E940C01E6C04D
:10041000DC0112966D917C9113971BC06DE2C801AF
:100420000E949800F7014281538164817581C8015F
:100430000E940A0FD3C0FC0182819381A481B581FF
:10044000892B8A2B8B2B19F46BE471E002C066E4D4
:1004500071E0C8010E94FC00C1C0C986DA86EB8643
:10046000FC86CE0109960E94350B1C0189849A8472
:10047000AB84BC84C501B4010E9447146B017C01AC
:100480000E94D5169B01AC01C501B4010E94611305
:1004900020E034E244E759E40E9436172B013C0186
:1004A0000E9447144B015C010E94D5169B01AC01D0
:1004B000C301B2010E9461139B01AC010E9462134F
:1004C0000E944714860E971EA81EB91EF0E48F16D0
:1004D000F2E49F06FFE0AF06B104E0F0FFEFCF1AB1
:1004E000DF0AEF0AFF0A2114310489F08AE0C816F6
:1004F000D104E104F10458F0AFEF2A1A3A0A812C32
:10050000912C5401C12CD12C7601C39403C0812CB1
:10051000912C5401B701A601C8010E940A0F811451
:100520009104A104B10409F442C096E0D92E2AE056
:10053000422E512C612C712CC501B401A3019201F2
:100540000E942513672B682B692B31F4DD2021F0E5
:1005500049015A01DA94F0CF1886CD2C7E01B8E01B
:10056000EB0EF11CFE86ED868AE0482E512C612CA4
:10057000712CCA94FFEFCF1669F0C501B401A30135
:1005800092010E942513605DF70162937F0149018A
:100590005A01EFCF6D857E856D197109D7FC739572
:1005A0008EE2DB018E93BD01C8010E94FC0037FE84
:1005B0000AC065E571E0C8010E94FC006627772744
:1005C0006219730908C02114310441F065E6C801BD
:1005D0000E949800B101C8010E94850E2E960FB6A8
:1005E000F894DEBF0FBECDBFDF91CF911F910F9169
:1005F000FF90EF90DF90CF90BF90AF909F908F9043
:100600007F906F905F904F903F902F9008950F9341
:100610001F93CF93DF938B01FC01C281D38120977D
:1006200059F06A817B81C8010E948016892B21F0D4
:100630000990D881C02DF3CFCE01DF91CF911F91CA
:100640000F910895FC01A081B1818C918D3051F002
:1006500024F489508230B8F505C0803219F08F3209
:1006600019F0089511962CC011968C9111978A3229
:1006700019F08F32D1F008951196B183A083A08133
:10068000B181CD0101969183808311968C91119750
:100690008823C9F08A3299F712968C9112978F327B
:1006A00071F713960DC08A3071F2A081B181CD012E
:1006B00001969183808311968C918111F4CF03C0B0
:1006C000B183A083C0CF08950F931F93CF93DF937F
:1006D0001F92CDB7DEB78C0169830E942203D80137
:1006E000ED91FC91119780816981861305C0319647
:1006F000ED93FC9381E001C080E00F90DF91CF91FA
:100700001F910F910895EF92FF920F931F93CF9334
:10071000DF938C01DC011496CD91DC911597EA8072
:10072000FB808E819F81E80EF91EC80102960E940F
:100730002203D8011296ED91FC9113979081973284
:1007400091F1923281F180ED890F8A3060F0892F2A
:100750008F7D81548A3138F09B3229F083ED890FE7
:10076000823008F060C0F801228133812F5F3F4F53
:10077000338322832E813F81A9014F5F5F4F6C81BC
:100780007D816417750740F06A817B81FB01E20F70
:10079000F31F5F834E839083D8011296ED91FC91F5
:1007A00013979081D0CF3196D8011396FC93EE9396
:1007B0001297D8011296ED91FC9113972081222374
:1007C00091F1AF014F5F5F4F13965C934E93129779
:1007D000291749F12C35A9F42181A6E3B1E08C91C8
:1007E000882339F0821303C011962C9102C012960F
:1007F000F6CF2223C1F03296D8011396FC93EE93E4
:1008000012974E815F81BA016F5F7F4FEC81FD814E
:10081000E617F70770F2EA81FB81E40FF51F7F838B
:100820006E832083C6CF8E819F819C012F5F3F4FB7
:100830004C815D814217530748F04A815B81FA0180
:10084000E80FF91F3F832E83108202C0E12CF12CA8
:10085000C701DF91CF911F910F91FF90EF90089505
:10086000DB01109749F0ED91FC9111970190F08117
:10087000E02DBC01CD01099480E090E00895CF9374
:10088000DF93EC01688179818AE090E00E94300476
:10089000009729F0FC011182108215821482EA81EE
:1008A000FB81309751F0208131812115310511F004
:1008B000F901F9CF9183808302C09B838A83DF9102
:1008C000CF910895EF92FF920F931F93CF93DF93F1
:1008D0008C01EB017A010E940703FC01892B41F492
:1008E000C8010E943F04FC01892BF9F0D383C28325
:1008F000D7014D915C9157FD07C0052E000C660B8A
:10090000770B84E090E009C0519541955109052E7F
:10091000000C660B770B85E090E09583848346831B
:1009200057836087718781E001C080E0DF91CF91BC
:100930001F910F91FF90EF900895CF93DF93EC01FB
:10094000BC0184E090E00E943004FC01009729F093
:10095000D183C0831382128211C080913B02811126
:100960000BC0109238021092370210923A02109285
:10097000390281E080933B0287E392E0DF91CF91DF
:1009800008959F92AF92BF92CF92DF92EF92FF9223
:100990000F931F93CF93DF9300D000D000D0CDB73B
:1009A000DEB7D82EC92E082F192FF8018191919109
:1009B0008F010E949D047C016BE7C8010E946403C3
:1009C000882309F443C06DE7C8010E9464038111C4
:1009D0004DC086E0982E8D2D9C2D0E9483035C01D6
:1009E000892BA1F16AE3C8010E946403882371F195
:1009F0001A821982BE016F5F7F4F8D2D9C2D0E9440
:100A00008C0F882319F1B501C7010E9407030097D5
:100A100041F4C7010E943F040097C1F0FC01B3827A
:100A2000A282FE013196DC011496892D01900D926F
:100A30008A95E1F76DE7C8010E946403811116C031
:100A40006CE2C8010E9464038111C5CF80913B0212
:100A500081110EC0109238021092370210923A02A1
:100A60001092390281E080933B0202C0C70102C0AC
:100A700087E392E026960FB6F894DEBF0FBECDBF97
:100A8000DF91CF911F910F91FF90EF90DF90CF906A
:100A9000BF90AF909F9008956F927F928F929F9298
:100AA000AF92BF92CF92DF92EF92FF920F931F937C
:100AB000CF93DF93CDB7DEB7CC54D1400FB6F894C7
:100AC000DEBF0FBECDBF80913602882309F4A2C2DB
:100AD000FE01EF52FF4FCF0108969383828384E695
:100AE00090E095838483178216828AE091E0918357
:100AF00080838091FB029091FC02009711F480E4C6
:100B000091E0FA83E9839C838B83FE83ED838AE003
:100B10008F838E010F5F1F4FC8010E94C1045C01CB
:100B200061E671E00E9407037C01009709F464C04C
:100B3000DC011496CD90DC901597B1E0CB16D10472
:100B400061F4FC01668177816115710531F081E402
:100B500091E00E948016892B81F0F1E0CF1AD10834
:100B600022E0C216D10448F4D70116966D917C910B
:100B700017976115710509F041C060E471E0C80183
:100B80000E945D11FE01ED5BFE4F11830083C35C8B
:100B9000DE4FF983E883CD53D140C15CDE4F19822B
:100BA0001882CF53D140BE01635C7E4FC7010496CB
:100BB0000E94CA0C89819A81C35CDE4F9983888325
:100BC000CD53D1408B819C81C15CDE4F998388835A
:100BD000CF53D1408D819E81CF5BDE4F9983888337
:100BE000C154D1401A8219821C821B821E821D822E
:100BF000C8010E94201107C060E471E0CE01835C4F
:100C00009E4F0E945D1164E671E0C5010E94B00E26
:100C10007C0168E671E0C5010E94B00E982E892E15
:100C20006CE671E0C5010E94B00E6C0140E050E03E
:100C300060E471E08BEF92E00E94FF1010923602A8
:100C4000F50180819181892B19F480E791E03CC006
:100C50002091050330910603CF5BDE4F8881998197
:100C6000C154D1402817390769F58091010390914B
:100C70000203009749F0C35CDE4F68817981CD5350
:100C8000D14061157105D1F4C35CDE4FE881F98173
:100C9000CD53D140309749F0232BC9F0208130E06B
:100CA00088279927821B930B0BC0009781F0232B79
:100CB00071F0DC012C91822F90E002C00E9480161E
:100CC000892B29F085E891E00E949E119DC1F7FED5
:100CD0003CC04AE0B701CE018D5B9E4F0E942511BA
:100CE00066E971E0C8010E945D11BE016D5B7E4F37
:100CF000C8010E94EC100E948711C8010E942011B7
:100D0000CE018D5B9E4F0E94201160914302709135
:100D100044024AE0CE018D5B9E4F0E94251169EA94
:100D200071E0C8010E945D11BE016D5B7E4FC8017C
:100D30000E94EC100E948711C8010E942011CE0170
:100D40008D5B9E4F0E9420115FC183E392E00E9461
:100D50009E116DEB71E0C8010E945D11BE01635CE4
:100D60007E4FC8010E94EC100E948711C8010E94AA
:100D700020114AE0B701CE018D5B9E4F0E942511E4
:100D800069EC71E0C8010E945D11BE016D5B7E4F90
:100D9000C8010E94EC100E948711C8010E94201116
:100DA000CE018D5B9E4F0E9420114AE0692D782D67
:100DB000CE018D5B9E4F0E94251162ED71E0C8014E
:100DC0000E945D11BE016D5B7E4FC8010E94EC1058
:100DD0000E948711C8010E942011CE018D5B9E4F99
:100DE0000E9420114AE0B601CE018D5B9E4F0E9409
:100DF000251161EE71E0C8010E945D11BE016D5BBD
:100E00007E4FC8010E94EC100E948711C8010E9409
:100E10002011CE018D5B9E4F0E942011B4E6EB168F
:100E2000F104E9F55BEE652E52E0752EA12CB12C94
:100E30008091430290914402A816B90694F4F301FC
:100E40008081F2E06F0E711C61E00E94650A64E629
:100E500070E080E090E00E94B10A2FEFA21AB20A7F
:100E6000E7CF31E0C316D104E9F182E0C816D1041E
:100E700009F041C0C701880F991F9C0125513D4FC2
:100E8000690161E0D9018C910E94650A64EF71E00B
:100E900080E090E00E94B10A60E0F60129C098EC81
:100EA000E916F104F1F64BEE642E42E0742EA12C0B
:100EB000B12C8091430290914402A816B9068CF699
:100EC000D3018C91B2E06B0E711C60E00E94650A48
:100ED00064E670E080E090E00E94B10AEFEFAE1AA5
:100EE000BE0AE7CFF701EE0FFF1FE551FD4F692D59
:100EF00080810E94650AC55BDE4FF982E882CB548F
:100F0000D140C75BDE4F9882C954D140C65BDE4FEB
:100F10008882CA54D140CE0109969C838B8388EC89
:100F200090E09E838D8318861F8280E191E09A83F2
:100F30008983C8010E949D048C0169EE71E00E94C2
:100F400007037C01892B69F4C8010E943F047C01DE
:100F5000892B81F189EE91E0D70113969C938E93B2
:100F60001297F80180819181209101033091020351
:100F7000232B01F1C0900503D0900603FFEFCF1A99
:100F8000DF0ADC01ED91FC910190F081E02DB601CA
:100F900009955C01009771F0609101037091020363
:100FA000A6010E94771682E090E0F7019583848382
:100FB000B782A682AE01455B5E4F62EF71E0C80169
:100FC0000E946204AE01475B5E4F68EF71E0C801AA
:100FD0000E9462048EE492E0CD5BDE4F99838883A9
:100FE000C354D140CB5BDE4F19821882C554D14027
:100FF000BE016D5B7E4FC8010E944101CE01835C42
:101000009E4F0E94201106C0CE01835C9E4F0E941D
:10101000201106C064E670E080E090E00E94B10A12
:10102000C45BDE4F0FB6F894DEBF0FBECDBFDF91BD
:10103000CF911F910F91FF90EF90DF90CF90BF90D5
:10104000AF909F908F907F906F900895FC01918D4D
:10105000828D981761F0828DDF01A80FB11D5D961A
:101060008C91928D9F5F9F73928F90E008958FEF88
:101070009FEF0895FC01918D828D981731F0828D3C
:10108000E80FF11D858D90E008958FEF9FEF089593
:10109000FC01918D228D892F90E0805C9F4F821BF7
:1010A00091098F73992708958EE492E00E94480871
:1010B00021E0892B09F420E0822F0895FC01848D22
:1010C000DF01A80FB11DA35ABF4F2C91848D90E072
:1010D00001968F739927848FA689B7892C93A0894D
:1010E000B1898C9180648C93938D848D981306C004
:1010F0000288F389E02D80818F7D80830895EF92AF
:10110000FF920F931F93CF93DF93EC0181E0888FC1
:101110009B8D8C8D981305C0E889F989808185FDA8
:1011200024C0F62E0B8D10E00F5F1F4F0F73112799
:10113000E02E8C8DE8120CC00FB607FCFACFE889C0
:10114000F989808185FFF5CFCE010E945E08F1CF3D
:101150008B8DFE01E80FF11DE35AFF4FF0820B8FDC
:10116000EA89FB898081806207C0EE89FF896083FC
:10117000E889F98980818064808381E090E0DF9153
:10118000CF911F910F91FF90EF900895CF93DF9330
:10119000EC01888D8823C9F0EA89FB89808185FD6F
:1011A00005C0A889B9898C9186FD0FC00FB607FCD0
:1011B000F5CF808185FFF2CFA889B9898C9185FF11
:1011C000EDCFCE010E945E08E7CFDF91CF91089569
:1011D0000E94540881110C94C10008953FB7F894FF
:1011E00080914A0290914B02A0914C02B0914D0225
:1011F00026B5A89B05C02F3F19F00196A11DB11D72
:101200003FBFBA2FA92F982F8827820F911DA11DAC
:10121000B11DBC01CD0142E0660F771F881F991FE9
:101220004A95D1F708950E9472160F931F93CF939A
:10123000DF9300D0CDB7DEB78C01DC01ED91FC91DE
:101240008081918169831A8241E050E0BE016F5F25
:101250007F4F0E94BE10F801828193810196938393
:1012600082830F900F90DF91CF911F910F9108957E
:10127000EF92FF920F931F93CF93DF93EC01E880DF
:10128000F980D7018D919C91FC0104811581611534
:10129000710551F0FB0101900020E9F73197AF0192
:1012A000461B570B0E94BE10D701ED91FC91848123
:1012B00095812A813B81280F391F201B310B3B83ED
:1012C0002A83DF91CF911F910F91FF90EF900895A6
:1012D0000F931F93CF93DF93CDB7DEB766970FB60B
:1012E000F894DEBF0FBECDBF8C01CB011E8AFE017C
:1012F00076962AE030E0B9010E94111390E3980F2E
:101300009293CB010097B9F7BF01C8010E94380939
:1013100066960FB6F894DEBF0FBECDBFDF91CF91BA
:101320001F910F9108958F929F92AF92BF92EF926B
:10133000FF920F931F93CF93DF93CDB7DEB76697DE
:101340000FB6F894DEBF0FBECDBF7C011E8A8E01A2
:101350000A5E1F4F8AE0882E912CA12CB12CCB0164
:10136000BA01A50194010E942513942F852F605D79
:10137000F80162938F01A901692F782F411551055A
:101380006105710561F7BF01C7010E9438096696C2
:101390000FB6F894DEBF0FBECDBFDF91CF911F9186
:1013A0000F91FF90EF90BF90AF909F908F90089516
:1013B000FF920F931F93CF93DF936115710549F44B
:1013C00061E471E0DF91CF911F910F91FF900C9438
:1013D00038098B01EC0162E2CE010E941509F80187
:1013E00061918F01662351F0E2E3F1E0F080FF208C
:1013F00099F39181961759F03296F8CF62E2CE01B7
:10140000DF91CF911F910F91FF900C9415096CE51E
:10141000CE010E9415096F2DDFCF1F920F920FB6DC
:101420000F9211242F933F934F935F936F937F936A
:101430008F939F93AF93BF93EF93FF938EE492E0CC
:101440000E945E08FF91EF91BF91AF919F918F91A4
:101450007F916F915F914F913F912F910F900FBEB0
:101460000F901F9018951F920F920FB60F92112494
:101470002F938F939F93EF93FF93E0915E02F091F0
:101480005F028081E0916402F091650282FD12C0EA
:101490009081809167028F5F8F732091680282171D
:1014A00051F0E0916702F0E0E25BFD4F958F809391
:1014B000670201C08081FF91EF919F918F912F91E1
:1014C0000F900FBE0F901F90189590E0FC01E85709
:1014D000FF4F3491FC01EC53FF4F2491FC01E05588
:1014E000FF4FE491EE2309F43BC0332339F133304D
:1014F00091F038F43130A9F0323001F584B58F7DA8
:1015000012C0373091F03830A1F03430B9F4809106
:1015100080008F7D03C0809180008F778093800052
:101520000DC084B58F7784BD09C08091B0008F77DE
:1015300003C08091B0008F7D8093B000F0E0EE0F8B
:10154000FF1FE456FF4FA591B4918FB7F894EC912B
:10155000611103C020952E2301C02E2B2C938FBF29
:1015600008958F929F92AF92BF92CF92DF92EF92A7
:10157000FF926B017C010E94EE084B015C01C114DB
:10158000D104E104F104F1F00E94EE08DC01CB018A
:1015900088199909AA09BB09883E9340A105B1059C
:1015A00070F321E0C21AD108E108F10888EE880E34
:1015B00083E0981EA11CB11CC114D104E104F10404
:1015C00019F7DDCFFF90EF90DF90CF90BF90AF90F5
:1015D0009F908F9008951F920F920FB60F92112433
:1015E0002F933F938F939F93AF93BF938091460226
:1015F00090914702A0914802B09149023091450272
:1016000023E0230F2D3720F40196A11DB11D05C045
:1016100026E8230F0296A11DB11D20934502809359
:10162000460290934702A0934802B09349028091EA
:101630004A0290914B02A0914C02B0914D0201964A
:10164000A11DB11D80934A0290934B02A0934C02BE
:10165000B0934D02BF91AF919F918F913F912F9188
:101660000F900FBE0F901F901895CF92DF92EF92C0
:10167000FF920F931F93CF93DF938C01FC01C080E7
:10168000D180E280F38020E836E948E15BE4C701DD
:10169000B6010E94761487FDAEC02EEA35EC4DE906
:1016A00054E7C701B6010E94761487FD10C02EEAE8
:1016B00035EC4DE954E7C701B6010E94CE13F8019D
:1016C0006083718382839383C0E2D0E002C0C0E074
:1016D000D0E0F801C080D180E280F3802AEC3BE1C9
:1016E0004EE05AE5C701B6010E94761487FD0EC090
:1016F0002AEC3BE14EE05AE5C701B6010E94CE1349
:10170000F80160837183828393836096F801C080BF
:10171000D180E280F38020E23CEB4EEB5CE4C70139
:10172000B6010E94761487FD0EC020E23CEB4EEB22
:101730005CE4C701B6010E94CE13F8016083718397
:10174000828393832896F801C080D180E280F38061
:1017500020E030E44CE156E4C701B6010E94761463
:1017600087FD0EC020E030E44CE156E4C701B6012D
:101770000E94CE13F8016083718382839383249641
:10178000F801C080D180E280F38020E030E048ECB6
:1017900052E4C701B6010E94761487FD0EC020E016
:1017A00030E048EC52E4C701B6010E94CE13F801C4
:1017B00060837183828393832296F801C080D180F5
:1017C000E280F38020E030E040E251E4C701B6015E
:1017D0000E94761487FD11C020E030E040E251E421
:1017E000C701B6010E94CE13F80160837183828322
:1017F0009383219602C0C0E0D0E0F801C080D18080
:10180000E280F38020E030E0A901C701B6010E9428
:10181000761418160CF0B4C02CEA35EC47E257E306
:10182000C701B6010E94D01618160CF4A9C023EB0C
:101830003EEC41E05CE0C701B6010E94D01687FF94
:101840000EC02EEA35EC4DE954E7C701B6010E94FF
:101850003617F8016083718382839383A097F80120
:10186000C080D180E280F3802DE73DE140E956E27F
:10187000C701B6010E94D01687FF0EC02AEC3BE1DB
:101880004EE05AE5C701B6010E943617F8016083A1
:101890007183828393836097F801C080D180E28056
:1018A000F38025E93FEB46ED53E3C701B6010E9403
:1018B000D01687FF0EC020E23CEB4EEB5CE4C70184
:1018C000B6010E943617F801608371838283938387
:1018D0002897F801C080D180E280F3802FE632E1C2
:1018E00043E85AE3C701B6010E94D01687FF0EC035
:1018F00020E030E44CE156E4C701B6010E943617FF
:10190000F80160837183828393832497F801C080F8
:10191000D180E280F3802DEC3CEC4CEC5DE3C70120
:10192000B6010E94D01687FF0EC020E030E048ECE0
:1019300052E4C701B6010E943617F8016083718333
:10194000828393832297F801C080D180E280F38064
:1019500020E030E040E85FE3C701B6010E94D01606
:1019600087FF0EC020E030E040E251E4C701B6013D
:101970000E943617F80160837183828393832197D5
:10198000CE01DF91CF911F910F91FF90EF90DF90EB
:10199000CF9008952F923F924F925F926F927F92D5
:1019A0008F929F92AF92BF92CF92DF92EF92FF926F
:1019B0000F931F93CF93DF93CDB7DEB72E970FB65C
:1019C000F894DEBF0FBECDBFDC01ED91FC913197E5
:1019D000E830F10508F080C18B017C01E45CFF4F29
:1019E0000C944713FC01C280D380E480F580A701EA
:1019F0009601C701B6010E94D016882319F061E54F
:101A000071E0A5C020E030E0A901C701B6010E9445
:101A1000D01687FF08C06DE2C8010E941509F7FAC9
:101A2000F094F7F8F09420E030E0A901C701B60186
:101A30000E94D016882309F48EC0A7019601C70121
:101A4000B6010E946213A70196010E94D01681116F
:101A500082C068E571E07BC0FC01E280F3806BE549
:101A6000C8010E941509D7011296ED90FC901397BA
:101A7000E114F10459F0B801C70102960E94CA0CA2
:101A8000F701E080F180E114F10411F46DE531C05B
:101A90006CE2C8010E941509EBCFDC011296ED90B3
:101AA000FC9013976BE7C8010E941509F701E280CB
:101AB000F38004C06CE2C8010E941509E114F1042E
:101AC000B9F0D70112966D917C911397C8010E94CD
:101AD000D8096AE3C8010E941509B801C701049634
:101AE0000E94CA0CF701E080F180E114F10411F7C3
:101AF0006DE7C8010E941509EFC0DC0112966D91D7
:101B00007C911397C8010E94D809E6C0FC0162814C
:101B100073811DC06DE2C8010E941509D70112969C
:101B20004D915D916D917C911597C8010E9493092B
:101B3000D3C0FC0182819381A481B581892B8A2B3A
:101B40008B2B19F46BE471E002C066E471E0C8010C
:101B50000E943809C1C0C986DA86EB86FC86CE01B0
:101B600009960E94350B1C0189849A84AB84BC843D
:101B7000C501B4010E9447146B017C010E94D51677
:101B80009B01AC01C501B4010E94611320E034E265
:101B900044E759E40E9436172B013C010E94471488
:101BA0004B015C010E94D5169B01AC01C301B2013F
:101BB0000E9461139B01AC010E9462130E944714B2
:101BC000860E971EA81EB91EF0E48F16F2E49F063B
:101BD000FFE0AF06B104E0F0FFEFCF1ADF0AEF0A33
:101BE000FF0A2114310489F08AE0C816D104E10407
:101BF000F10458F0AFEF2A1A3A0A812C912C5401C3
:101C0000C12CD12C7601C39403C0812C912C54019A
:101C1000B701A601C8010E94930981149104A1048F
:101C2000B10409F442C096E0D92E2AE0422E512C8C
:101C3000612C712CC501B401A30192010E942513EE
:101C4000672B682B692B31F4DD2021F049015A0103
:101C5000DA94F0CF1886CD2C7E01B8E0EB0EF11CA3
:101C6000FE86ED868AE0482E512C612C712CCA9498
:101C7000FFEFCF1669F0C501B401A30192010E94E4
:101C80002513605DF70162937F0149015A01EFCF8F
:101C90006D857E856D197109D7FC73958EE2DB0128
:101CA0008E93BD01C8010E94380937FE0AC065E560
:101CB00071E0C8010E943809662777276219730905
:101CC00008C02114310441F065E6C8010E941509DD
:101CD000B101C8010E9468092E960FB6F894DEBFC4
:101CE0000FBECDBFDF91CF911F910F91FF90EF906D
:101CF000DF90CF90BF90AF909F908F907F906F902C
:101D00005F904F903F902F9008950F931F93CF9324
:101D1000DF93CDB7DEB766970FB6F894DEBF0FBE80
:101D2000CDBF8C01CB011E8AFE0176962AE030E001
:101D3000B9010E94111390E3980F9293CB01009781
:101D4000B9F7BF01C8010E94FC0066960FB6F8946F
:101D5000DEBF0FBECDBFDF91CF911F910F910895D0
:101D60000E940703FC01892B09F44CC084819581F2
:101D7000833091053CF4813091057CF4009709F49F
:101D800048C039C0853091052CF00597A1F56681D2
:101D900077812CC08681978108950680F781E02D98
:101DA000309781F18081843781F18B3221F08D323F
:101DB00029F491E001C090E0319601C090E060E02C
:101DC00070E03AE0819120ED280F2A3068F4369FC8
:101DD000A001379F500D1124682F880F770B605397
:101DE0007109640F751FEECF992391F08827992709
:101DF000861B970B089566817781808591850E9467
:101E0000401406C080E090E0089581E090E00895DD
:101E1000CB0108958F929F92AF92BF92EF92FF9263
:101E20000F931F93CF93DF93CDB7DEB766970FB6AF
:101E3000F894DEBF0FBECDBF7C011E8A8E010A5E04
:101E40001F4F8AE0882E912CA12CB12CCB01BA0116
:101E5000A50194010E942513942F852F605DF80140
:101E600062938F01A901692F782F411551056105F2
:101E7000710561F7BF01C7010E94FC0066960FB6AD
:101E8000F894DEBF0FBECDBFDF91CF911F910F91B0
:101E9000FF90EF90BF90AF909F908F900895CF925A
:101EA000DF92EF92FF920F931F93CF93DF936C011A
:101EB0007A018B01C0E0D0E0CE15DF0589F0D801B2
:101EC0006D918D01D601ED91FC910190F081E02D95
:101ED000C6010995892B11F47E0102C02196ECCF31
:101EE000C701DF91CF911F910F91FF90EF90DF908D
:101EF000CF900895CF93DF93EC018881998100976B
:101F000011F00E941015198218821D821C821B82FA
:101F10001A82DF91CF9108959F92AF92BF92CF9294
:101F2000DF92EF92FF920F931F93CF93DF9300D036
:101F300000D000D0CDB7DEB7FC019681992309F41B
:101F4000E2C06B017F01915096835F0182E0A80E91
:101F5000B11CC5010E942203D7011296ED91FC919C
:101F6000139780818B3521F08B3709F499C0A3C07A
:101F7000F70100811181B80184E090E00E943004F3
:101F8000009751F0DC0111961C930E9313961C924E
:101F90001E9212978C0111C080910B0381110BC00E
:101FA000109208031092070310920A03109209037B
:101FB00081E080930B0307E013E06BE5C5010E940D
:101FC0006403882309F44CC06DE5C5010E946403D5
:101FD000811157C086E0982E1A821982BE016F5F68
:101FE0007F4FC7010E948C0F8823D1F1F8016081D7
:101FF000718188E090E00E943004DC01892B39F087
:1020000011961C921E9213961C921E921297F80122
:10201000228133812115310551F0F90180819181AF
:10202000009711F09C01F9CFB183A08303C0F801A0
:10203000B383A2831097A1F0FE0131961296892DE9
:1020400001900D928A95E1F76DE5C5010E94640348
:10205000811117C06CE2C5010E9464038111BCCFDD
:1020600080910B0381110BC010920803109207039B
:1020700010920A031092090381E080930B0307E09A
:1020800013E0D8018D919C91892B11F410E033C09D
:1020900086E090E0F60191838083138302832AC057
:1020A000C7010E94C104DC012D913C91232B71F3E7
:1020B00027E030E01AC011E0873219F0823209F0CF
:1020C00010E0C7010E948303009701F3112359F028
:1020D00022E030E0D60111963C932E9313969C9308
:1020E0008E93129708C021E030E0F60131832083FF
:1020F0009383828311E0D70116968C9116978F5F98
:1021000016968C9301C010E0812F26960FB6F89496
:10211000DEBF0FBECDBFDF91CF911F910F91FF901A
:10212000EF90DF90CF90BF90AF909F9008950F9366
:102130001F93CF93DF93EC0188819981009729F059
:102140002A813B812617370788F48B016F5F7F4F09
:102150000E94A815009761F0998388831B830A83E6
:102160002C813D81232B11F4FC01108281E001C000
:1021700080E0DF91CF911F910F910895EF92FF9230
:102180000F931F93CF93DF93FC0124813581611559
:10219000710511F480E019C041155105A9F07B01CA
:1021A000EC018A01020F131FB8010E9497108823C7
:1021B00089F3288139818C819D81B701820F931F1A
:1021C0000E9489161D830C8381E0DF91CF911F91BE
:1021D0000F91FF90EF900895CF93DF93EC01FB01F7
:1021E00044815581608171810E94BE10811103C0BC
:1021F000CE010E947A0FCE01DF91CF910895EF9228
:10220000FF920F931F93CF93DF93EC017B018A0121
:10221000BA010E949710811104C0CE010E947A0F6A
:1022200007C01D830C83B701888199810E9489169C
:10223000CE01DF91CF911F910F91FF90EF90089504
:10224000FC01808191810C941015EF92FF920F9305
:102250001F93CF93DF93CDB7DEB762970FB6F89495
:10226000DEBF0FBECDBF8C01CB01F8011182108201
:10227000138212821582148250E09E012F5F3F4F1D
:102280007901B9010E949016F70101900020E9F749
:102290003197AF014E195F09B701C8010E94FF10C5
:1022A00062960FB6F894DEBF0FBECDBFDF91CF911F
:1022B0001F910F91FF90EF900895FC011182108201
:1022C00013821282158214826115710551F0FB018F
:1022D00001900020E9F73197AF01461B570B0C9492
:1022E000FF1008956115710579F0FB010190002040
:1022F000E9F73197AF01461B570BDC01ED91FC91DB
:102300000280F381E02D099480E090E00895CF935E
:10231000DF93FC0144815581608171818EE492E0FC
:102320000E944F0FEC0162E372E08EE492E00E94A3
:1023300072118C0F9D1FDF91CF910895CF93DF9382
:10234000BC018EE492E00E947211EC0162E372E043
:102350008EE492E00E9472118C0F9D1FDF91CF914D
:102360000895CF93DF93CDB7DEB72C970FB6F894CF
:10237000DEBF0FBECDBF789484B5826084BD84B5C6
:10238000816084BD85B5826085BD85B5816085BD70
:1023900080916E00816080936E0010928100809128
:1023A00081008260809381008091810081608093B0
:1023B0008100809180008160809380008091B100D5
:1023C00084608093B1008091B00081608093B00000
:1023D00080917A00846080937A0080917A00826094
:1023E00080937A0080917A00816080937A00809156
:1023F0007A00806880937A001092C100E0915E02BA
:10240000F0915F0282E08083E0915A02F0915B02DA
:102410001082E0915C02F0915D028FEC808310925B
:102420006602E0916202F091630286E08083E091AF
:102430006002F0916102808180618083E09160029E
:10244000F0916102808188608083E0916002F09168
:102450006102808180688083E0916002F091610276
:1024600080818F7D808368EC70E08BEF92E00E942A
:10247000971088E090E090934402809343028EEF9F
:1024800091E00E949E1165E172E0CE0101960E94EA
:102490005D1161E073E0CE0101960E94EC100E9494
:1024A0008711CE0101960E9420110BEE12E0E12C63
:1024B000F12C6091430270914402E616F7066CF528
:1024C000D8018D919C9111979927FC01EC53FF4FF6
:1024D0002491FC01E055FF4F84918823A1F090E006
:1024E000880F991FFC01EA55FF4F45915491FC015B
:1024F000E456FF4F859194918FB7F894FA0190813B
:10250000292B20838FBF0E5F1F4F60E08C910E94AC
:10251000650AFFEFEF1AFF0ACCCF4AE0CE01019621
:102520000E94251169EA71E0CE0107960E945D11B3
:10253000BE016F5F7F4FCE0107960E94EC100E9494
:102540008711CE0107960E942011CE0101960E94AC
:1025500020110E944C050E94E808FBCF8BEF92E00F
:102560000E94201181E093E00C942011EEE4F2E04F
:102570001382128288EE93E0A0E0B0E0848395831A
:10258000A683B78386E191E09183808385EC90E018
:102590009587848784EC90E09787868780EC90E02D
:1025A000918B808B81EC90E0938B828B82EC90E01E
:1025B000958B848B86EC90E0978B868B118E128E98
:1025C000138E148E60E272E081E093E00E945D1150
:1025D00060E471E08BEF92E00E945D11EBEEF2E0BF
:1025E00082E090E09183808383E090E09383828314
:1025F00084E090E09583848385E090E097838683F0
:1026000086E090E09187808787E090E093878287DB
:1026100088E090E09587848789E090E097878687B7
:10262000089597FB072E16F4009407D077FD09D084
:102630000E944D1307FC05D03EF4909581959F4F65
:102640000895709561957F4F0895A1E21A2EAA1BF7
:10265000BB1BFD010DC0AA1FBB1FEE1FFF1FA21752
:10266000B307E407F50720F0A21BB30BE40BF50B4F
:10267000661F771F881F991F1A9469F760957095D8
:10268000809590959B01AC01BD01CF010895EE0F9F
:10269000FF1F0590F491E02D0994AA1BBB1B51E18B
:1026A00007C0AA1FBB1FA617B70710F0A61BB70BC2
:1026B000881F991F5A95A9F780959095BC01CD0167
:1026C00008955058BB27AA270E9479130C94BA1773
:1026D0000E94AC1738F00E94B31720F039F49F3FE6
:1026E00019F426F40C94A9170EF4E095E7FB0C946A
:1026F000A317E92F0E94CB1758F3BA176207730785
:102700008407950720F079F4A6F50C94ED170EF4E4
:10271000E0950B2EBA2FA02D0B01B90190010C01F1
:10272000CA01A0011124FF27591B99F0593F50F409
:10273000503E68F11A16F040A22F232F342F442761
:10274000585FF3CF469537952795A795F040539559
:10275000C9F77EF41F16BA0B620B730B840BBAF029
:102760009150A1F0FF0FBB1F661F771F881FC2F794
:102770000EC0BA0F621F731F841F48F487957795A8
:102780006795B795F7959E3F08F0B0CF9395880F62
:1027900008F09927EE0F9795879508950E94E21308
:1027A0000C94BA170E94B31758F00E94AC1740F06F
:1027B00029F45F3F29F00C94A31751110C94EE17E4
:1027C0000C94A9170E94CB1768F39923B1F35523F2
:1027D00091F3951B550BBB27AA2762177307840734
:1027E00038F09F5F5F4F220F331F441FAA1FA9F3CA
:1027F00035D00E2E3AF0E0E832D091505040E695B8
:10280000001CCAF72BD0FE2F29D0660F771F881F18
:10281000BB1F261737074807AB07B0E809F0BB0B0B
:10282000802DBF01FF2793585F4F3AF09E3F51051F
:1028300078F00C94A3170C94EE175F3FE4F3983EE6
:10284000D4F3869577956795B795F7959F5FC9F708
:10285000880F911D9695879597F90895E1E0660F89
:10286000771F881FBB1F621773078407BA0720F002
:10287000621B730B840BBA0BEE1F88F7E09508956B
:102880000E9447146894B1110C94EE1708950E94A9
:10289000D31788F09F5798F0B92F9927B751B0F008
:1028A000E1F0660F771F881F991F1AF0BA95C9F7D4
:1028B00014C0B13091F00E94ED17B1E008950C946E
:1028C000ED17672F782F8827B85F39F0B93FCCF321
:1028D000869577956795B395D9F73EF49095809551
:1028E000709561957F4F8F4F9F4F08950E941217EB
:1028F00008F48FEF0895CF93DF938230910510F4A1
:1029000082E090E0E0911503F091160320E030E0C2
:10291000C0E0D0E0309711F140815181481759074C
:10292000C0F04817590761F482819381209719F00C
:102930009B838A832BC0909316038093150326C034
:102940002115310519F04217530718F49A01BE01F9
:10295000DF01EF010280F381E02DDCCF211531058D
:1029600009F1281B390B2430310590F412968D9112
:102970009C9113976115710521F0FB01938382836C
:1029800004C09093160380931503FD01329644C052
:10299000FD01E20FF31F81939193225031092D9392
:1029A0003C933AC02091130330911403232B41F43C
:1029B00020910201309103013093140320931303FB
:1029C00020910001309101012115310541F42DB70D
:1029D0003EB74091040150910501241B350BE09155
:1029E0001303F0911403E217F307A0F42E1B3F0B1F
:1029F0002817390778F0AC014E5F5F4F2417350771
:102A000048F04E0F5F1F50931403409313038193BC
:102A1000919302C0E0E0F0E0CF01DF91CF91089503
:102A20000F931F93CF93DF93009709F48CC0FC01A1
:102A3000329713821282009115031091160301152B
:102A4000110581F420813181820F931F209113039E
:102A5000309114032817390779F5F0931403E093A4
:102A6000130371C0D80140E050E0AE17BF0750F427
:102A700012962D913C911397AD012115310509F165
:102A8000D901F3CF9D01DA01338322836081718103
:102A9000860F971F8217930769F4EC01288139810B
:102AA000260F371F2E5F3F4F318320838A819B8102
:102AB00093838283452B29F4F0931603E093150347
:102AC00042C01396FC93EE931297ED0149915991F0
:102AD0009E01240F351FE217F30771F48081918165
:102AE000840F951F029611969C938E9382819381F9
:102AF00013969C938E931297E0E0F0E0D801129623
:102B00008D919C911397009719F0F8018C01F6CFE5
:102B10008D919C9198012E5F3F4F820F931F2091C2
:102B20001303309114032817390769F4309729F4F7
:102B3000109216031092150302C013821282109392
:102B4000140300931303DF91CF911F910F91089508
:102B5000A0E0B0E0EEEAF5E10C94F817EC01009784
:102B600021F4CB010E947B14B8C0FC01E60FF71FD3
:102B70009C0122503109E217F30708F4ACC0D901D7
:102B80000D911C91119706171707B0F0053011052C
:102B900008F49FC0C80104978617970708F499C0E6
:102BA00002501109061B170B019311936D937C932F
:102BB000CF010E9410158DC05B01A01AB10A4C0113
:102BC000800E911EA0911503B091160340E050E0D5
:102BD000E12CF12C109709F44AC0A815B905D1F5DC
:102BE0006D907C901197630182E0C80ED11CCA14CD
:102BF000DB0480F1A3014A195B096A0182E0C80E77
:102C0000D11C1296BC9012971396AC91B5E0CB16DE
:102C1000D10440F0B282A38351834083D9016D93E4
:102C20007C930AC00E5F1F4FC301800F911FF901F3
:102C300091838083EB2DFA2FE114F10431F0D70159
:102C40001396FC93EE93129744C0F0931603E0930F
:102C500015033FC08D919C9111974817590708F4AF
:102C6000AC017D0112960D90BC91A02DB3CF809147
:102C700013039091140388159905E1F4461757073B
:102C8000C8F48091000190910101009741F48DB743
:102C90009EB74091040150910501841B950BE817E4
:102CA000F907C8F4F0931403E0931303F901718357
:102CB00060830FC0CB010E947B147C01009759F008
:102CC000A801BE010E947716CE010E941015C7010F
:102CD00004C0CE0102C080E090E0CDB7DEB7EEE0E8
:102CE0000C94141881E090E0F8940C942B18FB01DC
:102CF000DC0102C001900D9241505040D8F7089578
:102D0000FB01DC018D91019080190110D9F3990B21
:102D10000895FB01DC0101900D920020E1F7089578
:102D20004532510520F4423010F00C949B16FB0103
:102D30001082CB010895BB274A3031F4992322F445
:102D4000BDE2909581959F4F0C94A716BB27FB0180
:102D50005527AA27880F991FAA1FA41710F0A41B94
:102D600083955051B9F7A05DAA3308F0A95DA193EE
:102D7000009779F7B111B1931192CB010C94C01661
:102D8000DC01FC01672F71917723E1F7329704C0D2
:102D90007C916D9370836291AE17BF07C8F308955D
:102DA0000E94121708F481E00895E89409C097FB87
:102DB0003EF490958095709561957F4F8F4F9F4F12
:102DC0009923A9F0F92F96E9BB279395F695879556
:102DD00077956795B795F111F8CFFAF4BB0F11F419
:102DE00060FF1BC06F5F7F4F8F4F9F4F16C08823C0
:102DF00011F096E911C0772321F09EE8872F762FF6
:102E000005C0662371F096E8862F70E060E02AF036
:102E10009A95660F771F881FDAF7880F9695879522
:102E200097F90895990F0008550FAA0BE0E8FEEFF7
:102E300016161706E807F907C0F012161306E4077E
:102E4000F50798F0621B730B840B950B39F40A2677
:102E500061F0232B242B252B21F408950A2609F455
:102E6000A140A6958FEF811D811D08950E944917ED
:102E70000C94BA170E94AC1738F00E94B31720F0D8
:102E8000952311F00C94A3170C94A91711240C94FA
:102E9000EE170E94CB1770F3959FC1F3950F50E08A
:102EA000551F629FF001729FBB27F00DB11D639FFC
:102EB000AA27F00DB11DAA1F649F6627B00DA11DA2
:102EC000661F829F2227B00DA11D621F739FB00D48
:102ED000A11D621F839FA00D611D221F749F3327B8
:102EE000A00D611D231F849F600D211D822F762F51
:102EF0006A2F11249F5750409AF0F1F088234AF02E
:102F0000EE0FFF1FBB1F661F771F881F9150504099
:102F1000A9F79E3F510580F00C94A3170C94EE176F
:102F20005F3FE4F3983ED4F3869577956795B79520
:102F3000F795E7959F5FC1F7FE2B880F911D96953A
:102F4000879597F9089597F99F6780E870E060E0AA
:102F500008959FEF80EC089500240A941616170632
:102F600018060906089500240A941216130614067A
:102F700005060895092E0394000C11F4882352F0DD
:102F8000BB0F40F4BF2B11F460FF04C06F5F7F4F95
:102F90008F4F9F4F089557FD9058440F551F59F07C
:102FA0005F3F71F04795880F97FB991F61F09F3F36
:102FB00079F087950895121613061406551FF2CF5F
:102FC0004695F1DF08C0161617061806991FF1CFAF
:102FD00086957105610508940895E894BB276627D6
:102FE0007727CB0197F908952F923F924F925F92E6
:102FF0006F927F928F929F92AF92BF92CF92DF9209
:10300000EF92FF920F931F93CF93DF93CDB7DEB76D
:10301000CA1BDB0B0FB6F894DEBF0FBECDBF099401
:103020002A88398848885F846E847D848C849B8458
:10303000AA84B984C884DF80EE80FD800C811B8166
:10304000AA81B981CE0FD11D0FB6F894DEBF0FBE95
:10305000CDBFED01089510E0CDE6D0E004C0FE0143
:103060000E9447132196CE36D107C9F7F894FFCFB7
:1030700000001703800000000000AD000000000009
:10308000AD00000000007F084F0F480826083A08EE
:10309000C608090008000700060005000400030038
:1030A000020022225C5C6208660C6E0A720D7409D2
:1030B000006E756C6C00747275650066616C73658A
:1030C000004E614E00652D00496E66696E69747927
:1030D0000069640072656C00696E73007479700039
:1030E00070617273654F626A656374282920666136
:1030F000696C65640049742773206E6F74206D7964
:1031000020647574790052656C6179206E6F74204B
:1031100076616C6964203A20004E756D626572209C
:103120006F662072656C617973203A200044657681
:103130006963654944203A200052656C6179203A00
:103140002000496E737472756374696F6E203A2043
:103150000074797065203A2000646576696365497A
:10316000640072656C6179007374617465004C75FC
:1031700078646F6D2073797374656D206C6F616412
:1031800065642E2E0058626565204944203A20006F
:1031900030303133413230305F34304541453336A1
:0631A00035000D0A0000DD
:107E0000112484B714BE81FFF0D085E080938100F7
:107E100082E08093C00088E18093C10086E0809377
:107E2000C20080E18093C4008EE0C9D0259A86E02C
:107E300020E33CEF91E0309385002093840096BBD3
:107E4000B09BFECF1D9AA8958150A9F7CC24DD24C4
:107E500088248394B5E0AB2EA1E19A2EF3E0BF2EE7
:107E6000A2D0813461F49FD0082FAFD0023811F036
:107E7000013811F484E001C083E08DD089C08234E0
:107E800011F484E103C0853419F485E0A6D080C0E4
:107E9000853579F488D0E82EFF2485D0082F10E0AE
:107EA000102F00270E291F29000F111F8ED06801E7
:107EB0006FC0863521F484E090D080E0DECF843638
:107EC00009F040C070D06FD0082F6DD080E0C81688
:107ED00080E7D80618F4F601B7BEE895C0E0D1E017
:107EE00062D089930C17E1F7F0E0CF16F0E7DF06D8
:107EF00018F0F601B7BEE89568D007B600FCFDCFD4
:107F0000A601A0E0B1E02C9130E011968C91119780
:107F100090E0982F8827822B932B1296FA010C0160
:107F200087BEE89511244E5F5F4FF1E0A038BF0790
:107F300051F7F601A7BEE89507B600FCFDCF97BE46
:107F4000E89526C08437B1F42ED02DD0F82E2BD052
:107F50003CD0F601EF2C8F010F5F1F4F84911BD097
:107F6000EA94F801C1F70894C11CD11CFA94CF0C13
:107F7000D11C0EC0853739F428D08EE10CD085E9AC
:107F80000AD08FE07ACF813511F488E018D01DD067
:107F900080E101D065CF982F8091C00085FFFCCF94
:107FA0009093C60008958091C00087FFFCCF809118
:107FB000C00084FD01C0A8958091C6000895E0E648
:107FC000F0E098E1908380830895EDDF803219F02E
:107FD00088E0F5DFFFCF84E1DECF1F93182FE3DFCA
:107FE0001150E9F7F2DF1F91089580E0E8DFEE27F6
:047FF000FF270994CA
:027FFE00040479
:0400000300007E007B
:00000001FF